{
  "_format": "hh-sol-artifact-1",
  "contractName": "MultiSigWallet",
  "sourceName": "contracts/Multisig.sol",
  "abi": [
    {
      "inputs": [
        {
          "internalType": "address[]",
          "name": "_owners",
          "type": "address[]"
        },
        {
          "internalType": "uint256",
          "name": "_numConfirmationsRequired",
          "type": "uint256"
        }
      ],
      "stateMutability": "nonpayable",
      "type": "constructor"
    },
    {
      "anonymous": false,
      "inputs": [
        {
          "indexed": true,
          "internalType": "address",
          "name": "owner",
          "type": "address"
        },
        {
          "indexed": true,
          "internalType": "uint256",
          "name": "txIndex",
          "type": "uint256"
        }
      ],
      "name": "ConfirmTransaction",
      "type": "event"
    },
    {
      "anonymous": false,
      "inputs": [
        {
          "indexed": true,
          "internalType": "address",
          "name": "sender",
          "type": "address"
        },
        {
          "indexed": false,
          "internalType": "uint256",
          "name": "amount",
          "type": "uint256"
        },
        {
          "indexed": false,
          "internalType": "uint256",
          "name": "balance",
          "type": "uint256"
        }
      ],
      "name": "Deposit",
      "type": "event"
    },
    {
      "anonymous": false,
      "inputs": [
        {
          "indexed": true,
          "internalType": "address",
          "name": "owner",
          "type": "address"
        },
        {
          "indexed": true,
          "internalType": "uint256",
          "name": "txIndex",
          "type": "uint256"
        }
      ],
      "name": "ExecuteTransaction",
      "type": "event"
    },
    {
      "anonymous": false,
      "inputs": [
        {
          "indexed": true,
          "internalType": "address",
          "name": "owner",
          "type": "address"
        },
        {
          "indexed": true,
          "internalType": "uint256",
          "name": "txIndex",
          "type": "uint256"
        }
      ],
      "name": "RevokeConfirmation",
      "type": "event"
    },
    {
      "anonymous": false,
      "inputs": [
        {
          "indexed": true,
          "internalType": "address",
          "name": "owner",
          "type": "address"
        },
        {
          "indexed": true,
          "internalType": "uint256",
          "name": "txIndex",
          "type": "uint256"
        },
        {
          "indexed": true,
          "internalType": "address",
          "name": "to",
          "type": "address"
        },
        {
          "indexed": false,
          "internalType": "uint256",
          "name": "value",
          "type": "uint256"
        },
        {
          "indexed": false,
          "internalType": "bytes",
          "name": "data",
          "type": "bytes"
        }
      ],
      "name": "SubmitTransaction",
      "type": "event"
    },
    {
      "inputs": [],
      "name": "activateAtlas",
      "outputs": [],
      "stateMutability": "nonpayable",
      "type": "function"
    },
    {
      "inputs": [],
      "name": "atlasAddress",
      "outputs": [
        {
          "internalType": "address",
          "name": "",
          "type": "address"
        }
      ],
      "stateMutability": "view",
      "type": "function"
    },
    {
      "inputs": [],
      "name": "atlasChangeMinTime",
      "outputs": [
        {
          "internalType": "uint256",
          "name": "",
          "type": "uint256"
        }
      ],
      "stateMutability": "view",
      "type": "function"
    },
    {
      "inputs": [],
      "name": "atlasProposedActivationAddress",
      "outputs": [
        {
          "internalType": "address",
          "name": "",
          "type": "address"
        }
      ],
      "stateMutability": "view",
      "type": "function"
    },
    {
      "inputs": [],
      "name": "atlasProposedActivationTime",
      "outputs": [
        {
          "internalType": "uint256",
          "name": "",
          "type": "uint256"
        }
      ],
      "stateMutability": "view",
      "type": "function"
    },
    {
      "inputs": [],
      "name": "atlasProposedDeactivationTime",
      "outputs": [
        {
          "internalType": "uint256",
          "name": "",
          "type": "uint256"
        }
      ],
      "stateMutability": "view",
      "type": "function"
    },
    {
      "inputs": [
        {
          "internalType": "uint256",
          "name": "_txIndex",
          "type": "uint256"
        }
      ],
      "name": "confirmAtlas",
      "outputs": [],
      "stateMutability": "nonpayable",
      "type": "function"
    },
    {
      "inputs": [
        {
          "internalType": "uint256",
          "name": "_txIndex",
          "type": "uint256"
        }
      ],
      "name": "confirmTransaction",
      "outputs": [],
      "stateMutability": "nonpayable",
      "type": "function"
    },
    {
      "inputs": [],
      "name": "deactivateAtlas",
      "outputs": [],
      "stateMutability": "nonpayable",
      "type": "function"
    },
    {
      "inputs": [
        {
          "internalType": "uint256",
          "name": "_txIndex",
          "type": "uint256"
        }
      ],
      "name": "executeTransaction",
      "outputs": [],
      "stateMutability": "nonpayable",
      "type": "function"
    },
    {
      "inputs": [
        {
          "internalType": "uint256",
          "name": "_txIndex",
          "type": "uint256"
        }
      ],
      "name": "getApprovedOwners",
      "outputs": [
        {
          "internalType": "address[]",
          "name": "",
          "type": "address[]"
        }
      ],
      "stateMutability": "view",
      "type": "function"
    },
    {
      "inputs": [],
      "name": "getOwners",
      "outputs": [
        {
          "internalType": "address[]",
          "name": "",
          "type": "address[]"
        }
      ],
      "stateMutability": "view",
      "type": "function"
    },
    {
      "inputs": [
        {
          "internalType": "uint256",
          "name": "_txIndex",
          "type": "uint256"
        }
      ],
      "name": "getTransaction",
      "outputs": [
        {
          "internalType": "address",
          "name": "to",
          "type": "address"
        },
        {
          "internalType": "uint256",
          "name": "value",
          "type": "uint256"
        },
        {
          "internalType": "bytes",
          "name": "data",
          "type": "bytes"
        },
        {
          "internalType": "bool",
          "name": "executed",
          "type": "bool"
        },
        {
          "internalType": "uint256",
          "name": "numConfirmations",
          "type": "uint256"
        }
      ],
      "stateMutability": "view",
      "type": "function"
    },
    {
      "inputs": [],
      "name": "getTransactionCount",
      "outputs": [
        {
          "internalType": "uint256",
          "name": "",
          "type": "uint256"
        }
      ],
      "stateMutability": "view",
      "type": "function"
    },
    {
      "inputs": [],
      "name": "getTransactions",
      "outputs": [
        {
          "components": [
            {
              "internalType": "address",
              "name": "to",
              "type": "address"
            },
            {
              "internalType": "uint256",
              "name": "value",
              "type": "uint256"
            },
            {
              "internalType": "bytes",
              "name": "data",
              "type": "bytes"
            },
            {
              "internalType": "bool",
              "name": "executed",
              "type": "bool"
            },
            {
              "internalType": "uint256",
              "name": "numConfirmations",
              "type": "uint256"
            },
            {
              "internalType": "bool",
              "name": "atlasConfirmed",
              "type": "bool"
            }
          ],
          "internalType": "struct MultiSigWallet.Transaction[]",
          "name": "",
          "type": "tuple[]"
        }
      ],
      "stateMutability": "view",
      "type": "function"
    },
    {
      "inputs": [
        {
          "internalType": "uint256",
          "name": "",
          "type": "uint256"
        },
        {
          "internalType": "address",
          "name": "",
          "type": "address"
        }
      ],
      "name": "isConfirmed",
      "outputs": [
        {
          "internalType": "bool",
          "name": "",
          "type": "bool"
        }
      ],
      "stateMutability": "view",
      "type": "function"
    },
    {
      "inputs": [
        {
          "internalType": "address",
          "name": "",
          "type": "address"
        }
      ],
      "name": "isOwner",
      "outputs": [
        {
          "internalType": "bool",
          "name": "",
          "type": "bool"
        }
      ],
      "stateMutability": "view",
      "type": "function"
    },
    {
      "inputs": [],
      "name": "numConfirmationsRequired",
      "outputs": [
        {
          "internalType": "uint256",
          "name": "",
          "type": "uint256"
        }
      ],
      "stateMutability": "view",
      "type": "function"
    },
    {
      "inputs": [
        {
          "internalType": "uint256",
          "name": "",
          "type": "uint256"
        }
      ],
      "name": "owners",
      "outputs": [
        {
          "internalType": "address",
          "name": "",
          "type": "address"
        }
      ],
      "stateMutability": "view",
      "type": "function"
    },
    {
      "inputs": [
        {
          "internalType": "address",
          "name": "_atlasAddress",
          "type": "address"
        }
      ],
      "name": "proposeAtlasActivation",
      "outputs": [],
      "stateMutability": "nonpayable",
      "type": "function"
    },
    {
      "inputs": [],
      "name": "proposeAtlasDeactivation",
      "outputs": [],
      "stateMutability": "nonpayable",
      "type": "function"
    },
    {
      "inputs": [
        {
          "internalType": "uint256",
          "name": "_txIndex",
          "type": "uint256"
        }
      ],
      "name": "revokeConfirmation",
      "outputs": [],
      "stateMutability": "nonpayable",
      "type": "function"
    },
    {
      "inputs": [
        {
          "internalType": "address",
          "name": "_to",
          "type": "address"
        },
        {
          "internalType": "uint256",
          "name": "_value",
          "type": "uint256"
        },
        {
          "internalType": "bytes",
          "name": "_data",
          "type": "bytes"
        }
      ],
      "name": "submitTransaction",
      "outputs": [],
      "stateMutability": "nonpayable",
      "type": "function"
    },
    {
      "inputs": [
        {
          "internalType": "uint256",
          "name": "",
          "type": "uint256"
        }
      ],
      "name": "transactions",
      "outputs": [
        {
          "internalType": "address",
          "name": "to",
          "type": "address"
        },
        {
          "internalType": "uint256",
          "name": "value",
          "type": "uint256"
        },
        {
          "internalType": "bytes",
          "name": "data",
          "type": "bytes"
        },
        {
          "internalType": "bool",
          "name": "executed",
          "type": "bool"
        },
        {
          "internalType": "uint256",
          "name": "numConfirmations",
          "type": "uint256"
        },
        {
          "internalType": "bool",
          "name": "atlasConfirmed",
          "type": "bool"
        }
      ],
      "stateMutability": "view",
      "type": "function"
    },
    {
      "stateMutability": "payable",
      "type": "receive"
    }
  ],
  "bytecode": "0x6080604052603c6007553480156200001657600080fd5b50604051620039233803806200392383398181016040528101906200003c91906200050a565b600082511162000083576040517f08c379a00000000000000000000000000000000000000000000000000000000081526004016200007a90620005d1565b60405180910390fd5b60008111801562000095575081518111155b620000d7576040517f08c379a0000000000000000000000000000000000000000000000000000000008152600401620000ce9062000669565b60405180910390fd5b60005b8251811015620002d1576000838281518110620000fc57620000fb6200068b565b5b60200260200101519050600073ffffffffffffffffffffffffffffffffffffffff168173ffffffffffffffffffffffffffffffffffffffff160362000178576040517f08c379a00000000000000000000000000000000000000000000000000000000081526004016200016f906200070a565b60405180910390fd5b600160008273ffffffffffffffffffffffffffffffffffffffff1673ffffffffffffffffffffffffffffffffffffffff16815260200190815260200160002060009054906101000a900460ff161562000208576040517f08c379a0000000000000000000000000000000000000000000000000000000008152600401620001ff906200077c565b60405180910390fd5b60018060008373ffffffffffffffffffffffffffffffffffffffff1673ffffffffffffffffffffffffffffffffffffffff16815260200190815260200160002060006101000a81548160ff0219169083151502179055506000819080600181540180825580915050600190039060005260206000200160009091909190916101000a81548173ffffffffffffffffffffffffffffffffffffffff021916908373ffffffffffffffffffffffffffffffffffffffff160217905550508080600101915050620000da565b508060028190555050506200079e565b6000604051905090565b600080fd5b600080fd5b600080fd5b6000601f19601f8301169050919050565b7f4e487b7100000000000000000000000000000000000000000000000000000000600052604160045260246000fd5b6200034582620002fa565b810181811067ffffffffffffffff821117156200036757620003666200030b565b5b80604052505050565b60006200037c620002e1565b90506200038a82826200033a565b919050565b600067ffffffffffffffff821115620003ad57620003ac6200030b565b5b602082029050602081019050919050565b600080fd5b600073ffffffffffffffffffffffffffffffffffffffff82169050919050565b6000620003f082620003c3565b9050919050565b6200040281620003e3565b81146200040e57600080fd5b50565b6000815190506200042281620003f7565b92915050565b60006200043f62000439846200038f565b62000370565b90508083825260208201905060208402830185811115620004655762000464620003be565b5b835b818110156200049257806200047d888262000411565b84526020840193505060208101905062000467565b5050509392505050565b600082601f830112620004b457620004b3620002f5565b5b8151620004c684826020860162000428565b91505092915050565b6000819050919050565b620004e481620004cf565b8114620004f057600080fd5b50565b6000815190506200050481620004d9565b92915050565b60008060408385031215620005245762000523620002eb565b5b600083015167ffffffffffffffff811115620005455762000544620002f0565b5b62000553858286016200049c565b92505060206200056685828601620004f3565b9150509250929050565b600082825260208201905092915050565b7f6f776e6572732072657175697265640000000000000000000000000000000000600082015250565b6000620005b9600f8362000570565b9150620005c68262000581565b602082019050919050565b60006020820190508181036000830152620005ec81620005aa565b9050919050565b7f696e76616c6964206e756d626572206f6620726571756972656420636f6e666960008201527f726d6174696f6e73000000000000000000000000000000000000000000000000602082015250565b60006200065160288362000570565b91506200065e82620005f3565b604082019050919050565b60006020820190508181036000830152620006848162000642565b9050919050565b7f4e487b7100000000000000000000000000000000000000000000000000000000600052603260045260246000fd5b7f696e76616c6964206f776e657200000000000000000000000000000000000000600082015250565b6000620006f2600d8362000570565b9150620006ff82620006ba565b602082019050919050565b600060208201905081810360008301526200072581620006e3565b9050919050565b7f6f776e6572206e6f7420756e6971756500000000000000000000000000000000600082015250565b60006200076460108362000570565b915062000771826200072c565b602082019050919050565b60006020820190508181036000830152620007978162000755565b9050919050565b61317580620007ae6000396000f3fe60806040526004361061014f5760003560e01c806380f59a65116100b6578063c64274741161006f578063c64274741461050a578063d0549b8514610533578063da2f43531461055e578063ee22610b14610589578063ee33f305146105b2578063ee48deff146105c9576101a6565b806380f59a65146103e157806383920e901461041e5780639ace38c214610449578063a0e67e2b1461048b578063a2b507ce146104b6578063c01a8c84146104e1576101a6565b806333ea3dc81161010857806333ea3dc8146102bb57806338f6d6e0146102fc5780633b9361ff146103255780634939f968146103505780634f67de491461038d578063764e45a3146103b8576101a6565b8063025e7c27146101ab57806312891c8b146101e857806320ea8d8614610213578063286cd58e1461023c5780632e7700f0146102535780632f54bf6e1461027e576101a6565b366101a6573373ffffffffffffffffffffffffffffffffffffffff167f90890809c654f11d6e72a28fa60149770a0d11ec6c92319d6ceb2bb0a4ea1a15344760405161019c929190611f66565b60405180910390a2005b600080fd5b3480156101b757600080fd5b506101d260048036038101906101cd9190611fcf565b6105e0565b6040516101df919061203d565b60405180910390f35b3480156101f457600080fd5b506101fd61061f565b60405161020a9190612058565b60405180910390f35b34801561021f57600080fd5b5061023a60048036038101906102359190611fcf565b610625565b005b34801561024857600080fd5b506102516108ff565b005b34801561025f57600080fd5b50610268610a29565b6040516102759190612058565b60405180910390f35b34801561028a57600080fd5b506102a560048036038101906102a0919061209f565b610a36565b6040516102b291906120e7565b60405180910390f35b3480156102c757600080fd5b506102e260048036038101906102dd9190611fcf565b610a56565b6040516102f3959493929190612192565b60405180910390f35b34801561030857600080fd5b50610323600480360381019061031e9190611fcf565b610b69565b005b34801561033157600080fd5b5061033a610d6a565b6040516103479190612058565b60405180910390f35b34801561035c57600080fd5b5061037760048036038101906103729190611fcf565b610d70565b60405161038491906122aa565b60405180910390f35b34801561039957600080fd5b506103a2610ff7565b6040516103af9190612058565b60405180910390f35b3480156103c457600080fd5b506103df60048036038101906103da919061209f565b610ffd565b005b3480156103ed57600080fd5b50610408600480360381019061040391906122cc565b6110d4565b60405161041591906120e7565b60405180910390f35b34801561042a57600080fd5b50610433611103565b60405161044091906124bf565b60405180910390f35b34801561045557600080fd5b50610470600480360381019061046b9190611fcf565b611294565b604051610482969594939291906124e1565b60405180910390f35b34801561049757600080fd5b506104a06113a2565b6040516104ad91906122aa565b60405180910390f35b3480156104c257600080fd5b506104cb611430565b6040516104d8919061203d565b60405180910390f35b3480156104ed57600080fd5b5061050860048036038101906105039190611fcf565b611456565b005b34801561051657600080fd5b50610531600480360381019061052c919061267e565b611733565b005b34801561053f57600080fd5b5061054861195f565b6040516105559190612058565b60405180910390f35b34801561056a57600080fd5b50610573611965565b604051610580919061203d565b60405180910390f35b34801561059557600080fd5b506105b060048036038101906105ab9190611fcf565b61198b565b005b3480156105be57600080fd5b506105c7611d2b565b005b3480156105d557600080fd5b506105de611eb8565b005b600081815481106105f057600080fd5b906000526020600020016000915054906101000a900473ffffffffffffffffffffffffffffffffffffffff1681565b60045481565b600160003373ffffffffffffffffffffffffffffffffffffffff1673ffffffffffffffffffffffffffffffffffffffff16815260200190815260200160002060009054906101000a900460ff166106b1576040517f08c379a00000000000000000000000000000000000000000000000000000000081526004016106a89061274a565b60405180910390fd5b8060098054905081106106f9576040517f08c379a00000000000000000000000000000000000000000000000000000000081526004016106f0906127b6565b60405180910390fd5b816009818154811061070e5761070d6127d6565b5b906000526020600020906006020160030160009054906101000a900460ff161561076d576040517f08c379a000000000000000000000000000000000000000000000000000000000815260040161076490612851565b60405180910390fd5b600060098481548110610783576107826127d6565b5b906000526020600020906006020190506008600085815260200190815260200160002060003373ffffffffffffffffffffffffffffffffffffffff1673ffffffffffffffffffffffffffffffffffffffff16815260200190815260200160002060009054906101000a900460ff16610830576040517f08c379a0000000000000000000000000000000000000000000000000000000008152600401610827906128bd565b60405180910390fd5b6001816004016000828254610845919061290c565b9250508190555060006008600086815260200190815260200160002060003373ffffffffffffffffffffffffffffffffffffffff1673ffffffffffffffffffffffffffffffffffffffff16815260200190815260200160002060006101000a81548160ff021916908315150217905550833373ffffffffffffffffffffffffffffffffffffffff167ff0dca620e2e81f7841d07bcc105e1704fb01475b278a9d4c236e1c62945edd5560405160405180910390a350505050565b600160003373ffffffffffffffffffffffffffffffffffffffff1673ffffffffffffffffffffffffffffffffffffffff16815260200190815260200160002060009054906101000a900460ff1661098b576040517f08c379a00000000000000000000000000000000000000000000000000000000081526004016109829061274a565b60405180910390fd5b60075460065461099b9190612940565b4210156109dd576040517f08c379a00000000000000000000000000000000000000000000000000000000081526004016109d4906129e6565b60405180910390fd5b6000600360006101000a81548173ffffffffffffffffffffffffffffffffffffffff021916908373ffffffffffffffffffffffffffffffffffffffff1602179055506000600681905550565b6000600980549050905090565b60016020528060005260406000206000915054906101000a900460ff1681565b6000806060600080600060098781548110610a7457610a736127d6565b5b906000526020600020906006020190508060000160009054906101000a900473ffffffffffffffffffffffffffffffffffffffff168160010154826002018360030160009054906101000a900460ff168460040154828054610ad590612a35565b80601f0160208091040260200160405190810160405280929190818152602001828054610b0190612a35565b8015610b4e5780601f10610b2357610100808354040283529160200191610b4e565b820191906000526020600020905b815481529060010190602001808311610b3157829003601f168201915b50505050509250955095509550955095505091939590929450565b600073ffffffffffffffffffffffffffffffffffffffff16600360009054906101000a900473ffffffffffffffffffffffffffffffffffffffff1673ffffffffffffffffffffffffffffffffffffffff1603610bfa576040517f08c379a0000000000000000000000000000000000000000000000000000000008152600401610bf190612ab2565b60405180910390fd5b600360009054906101000a900473ffffffffffffffffffffffffffffffffffffffff1673ffffffffffffffffffffffffffffffffffffffff163373ffffffffffffffffffffffffffffffffffffffff1614610c8a576040517f08c379a0000000000000000000000000000000000000000000000000000000008152600401610c8190612b1e565b60405180910390fd5b6009805490508110610cd1576040517f08c379a0000000000000000000000000000000000000000000000000000000008152600401610cc8906127b6565b60405180910390fd5b600060098281548110610ce757610ce66127d6565b5b906000526020600020906006020190508060050160009054906101000a900460ff1615610d49576040517f08c379a0000000000000000000000000000000000000000000000000000000008152600401610d4090612b8a565b60405180910390fd5b60018160050160006101000a81548160ff0219169083151502179055505050565b60075481565b60606000808054905067ffffffffffffffff811115610d9257610d91612553565b5b604051908082528060200260200182016040528015610dc05781602001602082028036833780820191505090505b5090506000805b600080549050811015610f1d57600860008681526020019081526020016000206000808381548110610dfc57610dfb6127d6565b5b9060005260206000200160009054906101000a900473ffffffffffffffffffffffffffffffffffffffff1673ffffffffffffffffffffffffffffffffffffffff1673ffffffffffffffffffffffffffffffffffffffff16815260200190815260200160002060009054906101000a900460ff1615610f105760008181548110610e8857610e876127d6565b5b9060005260206000200160009054906101000a900473ffffffffffffffffffffffffffffffffffffffff16838381518110610ec657610ec56127d6565b5b602002602001019073ffffffffffffffffffffffffffffffffffffffff16908173ffffffffffffffffffffffffffffffffffffffff1681525050600182610f0d9190612940565b91505b8080600101915050610dc7565b5060008167ffffffffffffffff811115610f3a57610f39612553565b5b604051908082528060200260200182016040528015610f685781602001602082028036833780820191505090505b50905060005b82811015610feb57838181518110610f8957610f886127d6565b5b6020026020010151828281518110610fa457610fa36127d6565b5b602002602001019073ffffffffffffffffffffffffffffffffffffffff16908173ffffffffffffffffffffffffffffffffffffffff16815250508080600101915050610f6e565b50809350505050919050565b60065481565b600160003373ffffffffffffffffffffffffffffffffffffffff1673ffffffffffffffffffffffffffffffffffffffff16815260200190815260200160002060009054906101000a900460ff16611089576040517f08c379a00000000000000000000000000000000000000000000000000000000081526004016110809061274a565b60405180910390fd5b4260048190555080600560006101000a81548173ffffffffffffffffffffffffffffffffffffffff021916908373ffffffffffffffffffffffffffffffffffffffff16021790555050565b60086020528160005260406000206020528060005260406000206000915091509054906101000a900460ff1681565b60606009805480602002602001604051908101604052809291908181526020016000905b8282101561128b57838290600052602060002090600602016040518060c00160405290816000820160009054906101000a900473ffffffffffffffffffffffffffffffffffffffff1673ffffffffffffffffffffffffffffffffffffffff1673ffffffffffffffffffffffffffffffffffffffff168152602001600182015481526020016002820180546111ba90612a35565b80601f01602080910402602001604051908101604052809291908181526020018280546111e690612a35565b80156112335780601f1061120857610100808354040283529160200191611233565b820191906000526020600020905b81548152906001019060200180831161121657829003601f168201915b505050505081526020016003820160009054906101000a900460ff16151515158152602001600482015481526020016005820160009054906101000a900460ff16151515158152505081526020019060010190611127565b50505050905090565b600981815481106112a457600080fd5b90600052602060002090600602016000915090508060000160009054906101000a900473ffffffffffffffffffffffffffffffffffffffff16908060010154908060020180546112f390612a35565b80601f016020809104026020016040519081016040528092919081815260200182805461131f90612a35565b801561136c5780601f106113415761010080835404028352916020019161136c565b820191906000526020600020905b81548152906001019060200180831161134f57829003601f168201915b5050505050908060030160009054906101000a900460ff16908060040154908060050160009054906101000a900460ff16905086565b6060600080548060200260200160405190810160405280929190818152602001828054801561142657602002820191906000526020600020905b8160009054906101000a900473ffffffffffffffffffffffffffffffffffffffff1673ffffffffffffffffffffffffffffffffffffffff16815260200190600101908083116113dc575b5050505050905090565b600360009054906101000a900473ffffffffffffffffffffffffffffffffffffffff1681565b600160003373ffffffffffffffffffffffffffffffffffffffff1673ffffffffffffffffffffffffffffffffffffffff16815260200190815260200160002060009054906101000a900460ff166114e2576040517f08c379a00000000000000000000000000000000000000000000000000000000081526004016114d99061274a565b60405180910390fd5b80600980549050811061152a576040517f08c379a0000000000000000000000000000000000000000000000000000000008152600401611521906127b6565b60405180910390fd5b816009818154811061153f5761153e6127d6565b5b906000526020600020906006020160030160009054906101000a900460ff161561159e576040517f08c379a000000000000000000000000000000000000000000000000000000000815260040161159590612851565b60405180910390fd5b826008600082815260200190815260200160002060003373ffffffffffffffffffffffffffffffffffffffff1673ffffffffffffffffffffffffffffffffffffffff16815260200190815260200160002060009054906101000a900460ff161561163d576040517f08c379a000000000000000000000000000000000000000000000000000000000815260040161163490612bf6565b60405180910390fd5b600060098581548110611653576116526127d6565b5b9060005260206000209060060201905060018160040160008282546116789190612940565b9250508190555060016008600087815260200190815260200160002060003373ffffffffffffffffffffffffffffffffffffffff1673ffffffffffffffffffffffffffffffffffffffff16815260200190815260200160002060006101000a81548160ff021916908315150217905550843373ffffffffffffffffffffffffffffffffffffffff167f5cbe105e36805f7820e291f799d5794ff948af2a5f664e580382defb6339004160405160405180910390a35050505050565b600160003373ffffffffffffffffffffffffffffffffffffffff1673ffffffffffffffffffffffffffffffffffffffff16815260200190815260200160002060009054906101000a900460ff166117bf576040517f08c379a00000000000000000000000000000000000000000000000000000000081526004016117b69061274a565b60405180910390fd5b6000600980549050905060096040518060c001604052808673ffffffffffffffffffffffffffffffffffffffff1681526020018581526020018481526020016000151581526020016000815260200160001515815250908060018154018082558091505060019003906000526020600020906006020160009091909190915060008201518160000160006101000a81548173ffffffffffffffffffffffffffffffffffffffff021916908373ffffffffffffffffffffffffffffffffffffffff1602179055506020820151816001015560408201518160020190816118a49190612dc2565b5060608201518160030160006101000a81548160ff0219169083151502179055506080820151816004015560a08201518160050160006101000a81548160ff02191690831515021790555050508373ffffffffffffffffffffffffffffffffffffffff16813373ffffffffffffffffffffffffffffffffffffffff167fd5a05bf70715ad82a09a756320284a1b54c9ff74cd0f8cce6219e79b563fe59d8686604051611951929190612e94565b60405180910390a450505050565b60025481565b600560009054906101000a900473ffffffffffffffffffffffffffffffffffffffff1681565b600160003373ffffffffffffffffffffffffffffffffffffffff1673ffffffffffffffffffffffffffffffffffffffff16815260200190815260200160002060009054906101000a900460ff16611a17576040517f08c379a0000000000000000000000000000000000000000000000000000000008152600401611a0e9061274a565b60405180910390fd5b806009805490508110611a5f576040517f08c379a0000000000000000000000000000000000000000000000000000000008152600401611a56906127b6565b60405180910390fd5b8160098181548110611a7457611a736127d6565b5b906000526020600020906006020160030160009054906101000a900460ff1615611ad3576040517f08c379a0000000000000000000000000000000000000000000000000000000008152600401611aca90612851565b60405180910390fd5b600060098481548110611ae957611ae86127d6565b5b9060005260206000209060060201905060025481600401541015611b42576040517f08c379a0000000000000000000000000000000000000000000000000000000008152600401611b3990612f10565b60405180910390fd5b600073ffffffffffffffffffffffffffffffffffffffff16600360009054906101000a900473ffffffffffffffffffffffffffffffffffffffff1673ffffffffffffffffffffffffffffffffffffffff1614611bea578060050160009054906101000a900460ff16611be9576040517f08c379a0000000000000000000000000000000000000000000000000000000008152600401611be090612f7c565b60405180910390fd5b5b60018160030160006101000a81548160ff02191690831515021790555060008160000160009054906101000a900473ffffffffffffffffffffffffffffffffffffffff1673ffffffffffffffffffffffffffffffffffffffff16826001015483600201604051611c5a919061302a565b60006040518083038185875af1925050503d8060008114611c97576040519150601f19603f3d011682016040523d82523d6000602084013e611c9c565b606091505b5050905080611ce0576040517f08c379a0000000000000000000000000000000000000000000000000000000008152600401611cd79061308d565b60405180910390fd5b843373ffffffffffffffffffffffffffffffffffffffff167f5445f318f4f5fcfb66592e68e0cc5822aa15664039bd5f0ffde24c5a8142b1ac60405160405180910390a35050505050565b600160003373ffffffffffffffffffffffffffffffffffffffff1673ffffffffffffffffffffffffffffffffffffffff16815260200190815260200160002060009054906101000a900460ff16611db7576040517f08c379a0000000000000000000000000000000000000000000000000000000008152600401611dae9061274a565b60405180910390fd5b600754600454611dc79190612940565b421015611e09576040517f08c379a0000000000000000000000000000000000000000000000000000000008152600401611e009061311f565b60405180910390fd5b600560009054906101000a900473ffffffffffffffffffffffffffffffffffffffff16600360006101000a81548173ffffffffffffffffffffffffffffffffffffffff021916908373ffffffffffffffffffffffffffffffffffffffff1602179055506000600560006101000a81548173ffffffffffffffffffffffffffffffffffffffff021916908373ffffffffffffffffffffffffffffffffffffffff1602179055506000600481905550565b600160003373ffffffffffffffffffffffffffffffffffffffff1673ffffffffffffffffffffffffffffffffffffffff16815260200190815260200160002060009054906101000a900460ff16611f44576040517f08c379a0000000000000000000000000000000000000000000000000000000008152600401611f3b9061274a565b60405180910390fd5b42600681905550565b6000819050919050565b611f6081611f4d565b82525050565b6000604082019050611f7b6000830185611f57565b611f886020830184611f57565b9392505050565b6000604051905090565b600080fd5b600080fd5b611fac81611f4d565b8114611fb757600080fd5b50565b600081359050611fc981611fa3565b92915050565b600060208284031215611fe557611fe4611f99565b5b6000611ff384828501611fba565b91505092915050565b600073ffffffffffffffffffffffffffffffffffffffff82169050919050565b600061202782611ffc565b9050919050565b6120378161201c565b82525050565b6000602082019050612052600083018461202e565b92915050565b600060208201905061206d6000830184611f57565b92915050565b61207c8161201c565b811461208757600080fd5b50565b60008135905061209981612073565b92915050565b6000602082840312156120b5576120b4611f99565b5b60006120c38482850161208a565b91505092915050565b60008115159050919050565b6120e1816120cc565b82525050565b60006020820190506120fc60008301846120d8565b92915050565b600081519050919050565b600082825260208201905092915050565b60005b8381101561213c578082015181840152602081019050612121565b60008484015250505050565b6000601f19601f8301169050919050565b600061216482612102565b61216e818561210d565b935061217e81856020860161211e565b61218781612148565b840191505092915050565b600060a0820190506121a7600083018861202e565b6121b46020830187611f57565b81810360408301526121c68186612159565b90506121d560608301856120d8565b6121e26080830184611f57565b9695505050505050565b600081519050919050565b600082825260208201905092915050565b6000819050602082019050919050565b6122218161201c565b82525050565b60006122338383612218565b60208301905092915050565b6000602082019050919050565b6000612257826121ec565b61226181856121f7565b935061226c83612208565b8060005b8381101561229d5781516122848882612227565b975061228f8361223f565b925050600181019050612270565b5085935050505092915050565b600060208201905081810360008301526122c4818461224c565b905092915050565b600080604083850312156122e3576122e2611f99565b5b60006122f185828601611fba565b92505060206123028582860161208a565b9150509250929050565b600081519050919050565b600082825260208201905092915050565b6000819050602082019050919050565b61234181611f4d565b82525050565b600082825260208201905092915050565b600061236382612102565b61236d8185612347565b935061237d81856020860161211e565b61238681612148565b840191505092915050565b61239a816120cc565b82525050565b600060c0830160008301516123b86000860182612218565b5060208301516123cb6020860182612338565b50604083015184820360408601526123e38282612358565b91505060608301516123f86060860182612391565b50608083015161240b6080860182612338565b5060a083015161241e60a0860182612391565b508091505092915050565b600061243583836123a0565b905092915050565b6000602082019050919050565b60006124558261230c565b61245f8185612317565b93508360208202850161247185612328565b8060005b858110156124ad578484038952815161248e8582612429565b94506124998361243d565b925060208a01995050600181019050612475565b50829750879550505050505092915050565b600060208201905081810360008301526124d9818461244a565b905092915050565b600060c0820190506124f6600083018961202e565b6125036020830188611f57565b81810360408301526125158187612159565b905061252460608301866120d8565b6125316080830185611f57565b61253e60a08301846120d8565b979650505050505050565b600080fd5b600080fd5b7f4e487b7100000000000000000000000000000000000000000000000000000000600052604160045260246000fd5b61258b82612148565b810181811067ffffffffffffffff821117156125aa576125a9612553565b5b80604052505050565b60006125bd611f8f565b90506125c98282612582565b919050565b600067ffffffffffffffff8211156125e9576125e8612553565b5b6125f282612148565b9050602081019050919050565b82818337600083830152505050565b600061262161261c846125ce565b6125b3565b90508281526020810184848401111561263d5761263c61254e565b5b6126488482856125ff565b509392505050565b600082601f83011261266557612664612549565b5b813561267584826020860161260e565b91505092915050565b60008060006060848603121561269757612696611f99565b5b60006126a58682870161208a565b93505060206126b686828701611fba565b925050604084013567ffffffffffffffff8111156126d7576126d6611f9e565b5b6126e386828701612650565b9150509250925092565b600082825260208201905092915050565b7f6e6f74206f776e65720000000000000000000000000000000000000000000000600082015250565b60006127346009836126ed565b915061273f826126fe565b602082019050919050565b6000602082019050818103600083015261276381612727565b9050919050565b7f747820646f6573206e6f74206578697374000000000000000000000000000000600082015250565b60006127a06011836126ed565b91506127ab8261276a565b602082019050919050565b600060208201905081810360008301526127cf81612793565b9050919050565b7f4e487b7100000000000000000000000000000000000000000000000000000000600052603260045260246000fd5b7f747820616c726561647920657865637574656400000000000000000000000000600082015250565b600061283b6013836126ed565b915061284682612805565b602082019050919050565b6000602082019050818103600083015261286a8161282e565b9050919050565b7f7478206e6f7420636f6e6669726d656400000000000000000000000000000000600082015250565b60006128a76010836126ed565b91506128b282612871565b602082019050919050565b600060208201905081810360008301526128d68161289a565b9050919050565b7f4e487b7100000000000000000000000000000000000000000000000000000000600052601160045260246000fd5b600061291782611f4d565b915061292283611f4d565b925082820390508181111561293a576129396128dd565b5b92915050565b600061294b82611f4d565b915061295683611f4d565b925082820190508082111561296e5761296d6128dd565b5b92915050565b7f41746c617320646561637469766174696f6e2074696d65206e6f74207265616360008201527f6865640000000000000000000000000000000000000000000000000000000000602082015250565b60006129d06023836126ed565b91506129db82612974565b604082019050919050565b600060208201905081810360008301526129ff816129c3565b9050919050565b7f4e487b7100000000000000000000000000000000000000000000000000000000600052602260045260246000fd5b60006002820490506001821680612a4d57607f821691505b602082108103612a6057612a5f612a06565b5b50919050565b7f41746c6173206e6f742061637469766174656400000000000000000000000000600082015250565b6000612a9c6013836126ed565b9150612aa782612a66565b602082019050919050565b60006020820190508181036000830152612acb81612a8f565b9050919050565b7f4e6f742041746c61730000000000000000000000000000000000000000000000600082015250565b6000612b086009836126ed565b9150612b1382612ad2565b602082019050919050565b60006020820190508181036000830152612b3781612afb565b9050919050565b7f41746c617320616c726561647920636f6e6669726d6564000000000000000000600082015250565b6000612b746017836126ed565b9150612b7f82612b3e565b602082019050919050565b60006020820190508181036000830152612ba381612b67565b9050919050565b7f747820616c726561647920636f6e6669726d6564000000000000000000000000600082015250565b6000612be06014836126ed565b9150612beb82612baa565b602082019050919050565b60006020820190508181036000830152612c0f81612bd3565b9050919050565b60008190508160005260206000209050919050565b60006020601f8301049050919050565b600082821b905092915050565b600060088302612c787fffffffffffffffffffffffffffffffffffffffffffffffffffffffffffffffff82612c3b565b612c828683612c3b565b95508019841693508086168417925050509392505050565b6000819050919050565b6000612cbf612cba612cb584611f4d565b612c9a565b611f4d565b9050919050565b6000819050919050565b612cd983612ca4565b612ced612ce582612cc6565b848454612c48565b825550505050565b600090565b612d02612cf5565b612d0d818484612cd0565b505050565b5b81811015612d3157612d26600082612cfa565b600181019050612d13565b5050565b601f821115612d7657612d4781612c16565b612d5084612c2b565b81016020851015612d5f578190505b612d73612d6b85612c2b565b830182612d12565b50505b505050565b600082821c905092915050565b6000612d9960001984600802612d7b565b1980831691505092915050565b6000612db28383612d88565b9150826002028217905092915050565b612dcb82612102565b67ffffffffffffffff811115612de457612de3612553565b5b612dee8254612a35565b612df9828285612d35565b600060209050601f831160018114612e2c5760008415612e1a578287015190505b612e248582612da6565b865550612e8c565b601f198416612e3a86612c16565b60005b82811015612e6257848901518255600182019150602085019450602081019050612e3d565b86831015612e7f5784890151612e7b601f891682612d88565b8355505b6001600288020188555050505b505050505050565b6000604082019050612ea96000830185611f57565b8181036020830152612ebb8184612159565b90509392505050565b7f63616e6e6f742065786563757465207478000000000000000000000000000000600082015250565b6000612efa6011836126ed565b9150612f0582612ec4565b602082019050919050565b60006020820190508181036000830152612f2981612eed565b9050919050565b7f41746c6173206e6f7420636f6e6669726d656400000000000000000000000000600082015250565b6000612f666013836126ed565b9150612f7182612f30565b602082019050919050565b60006020820190508181036000830152612f9581612f59565b9050919050565b600081905092915050565b60008154612fb481612a35565b612fbe8186612f9c565b94506001821660008114612fd95760018114612fee57613021565b60ff1983168652811515820286019350613021565b612ff785612c16565b60005b8381101561301957815481890152600182019150602081019050612ffa565b838801955050505b50505092915050565b60006130368284612fa7565b915081905092915050565b7f7478206661696c65640000000000000000000000000000000000000000000000600082015250565b60006130776009836126ed565b915061308282613041565b602082019050919050565b600060208201905081810360008301526130a68161306a565b9050919050565b7f41746c61732061637469766174696f6e2074696d65206e6f742072656163686560008201527f6400000000000000000000000000000000000000000000000000000000000000602082015250565b60006131096021836126ed565b9150613114826130ad565b604082019050919050565b60006020820190508181036000830152613138816130fc565b905091905056fea2646970667358221220b0e34626ee22ea1792b962fdc46e87c7cb7e99dcb62515f47274d00c6a6dfe5f64736f6c63430008180033",
  "linkReferences": {},
  "deployedLinkReferences": {}
}