{
  "_format": "hh-sol-artifact-1",
  "contractName": "Multisig",
  "sourceName": "contracts/Multisig.sol",
  "abi": [
    {
      "inputs": [
        {
          "internalType": "address[]",
          "name": "_owners",
          "type": "address[]"
        },
        {
          "internalType": "uint256",
          "name": "_threshold",
          "type": "uint256"
        }
      ],
      "stateMutability": "nonpayable",
      "type": "constructor"
    },
    {
      "inputs": [],
      "name": "getOwners",
      "outputs": [
        {
          "internalType": "address[]",
          "name": "",
          "type": "address[]"
        }
      ],
      "stateMutability": "view",
      "type": "function"
    },
    {
      "inputs": [],
      "name": "getThreshold",
      "outputs": [
        {
          "internalType": "uint256",
          "name": "",
          "type": "uint256"
        }
      ],
      "stateMutability": "view",
      "type": "function"
    },
    {
      "inputs": [
        {
          "internalType": "uint256",
          "name": "",
          "type": "uint256"
        }
      ],
      "name": "owners",
      "outputs": [
        {
          "internalType": "address",
          "name": "",
          "type": "address"
        }
      ],
      "stateMutability": "view",
      "type": "function"
    }
  ],
  "bytecode": "0x608060405234801561001057600080fd5b506040516107333803806107338339818101604052810190610032919061030a565b815181111561004457610043610366565b5b816000908051906020019061005a929190610062565b505050610395565b8280548282559060005260206000209081019282156100db579160200282015b828111156100da5782518260006101000a81548173ffffffffffffffffffffffffffffffffffffffff021916908373ffffffffffffffffffffffffffffffffffffffff16021790555091602001919060010190610082565b5b5090506100e891906100ec565b5090565b5b808211156101055760008160009055506001016100ed565b5090565b6000604051905090565b600080fd5b600080fd5b600080fd5b6000601f19601f8301169050919050565b7f4e487b7100000000000000000000000000000000000000000000000000000000600052604160045260246000fd5b61016b82610122565b810181811067ffffffffffffffff8211171561018a57610189610133565b5b80604052505050565b600061019d610109565b90506101a98282610162565b919050565b600067ffffffffffffffff8211156101c9576101c8610133565b5b602082029050602081019050919050565b600080fd5b600073ffffffffffffffffffffffffffffffffffffffff82169050919050565b600061020a826101df565b9050919050565b61021a816101ff565b811461022557600080fd5b50565b60008151905061023781610211565b92915050565b600061025061024b846101ae565b610193565b90508083825260208201905060208402830185811115610273576102726101da565b5b835b8181101561029c57806102888882610228565b845260208401935050602081019050610275565b5050509392505050565b600082601f8301126102bb576102ba61011d565b5b81516102cb84826020860161023d565b91505092915050565b6000819050919050565b6102e7816102d4565b81146102f257600080fd5b50565b600081519050610304816102de565b92915050565b6000806040838503121561032157610320610113565b5b600083015167ffffffffffffffff81111561033f5761033e610118565b5b61034b858286016102a6565b925050602061035c858286016102f5565b9150509250929050565b7f4e487b7100000000000000000000000000000000000000000000000000000000600052600160045260246000fd5b61038f806103a46000396000f3fe608060405234801561001057600080fd5b50600436106100415760003560e01c8063025e7c2714610046578063a0e67e2b14610076578063e75235b814610094575b600080fd5b610060600480360381019061005b91906101c6565b6100b2565b60405161006d9190610234565b60405180910390f35b61007e6100f1565b60405161008b919061030d565b60405180910390f35b61009c61017f565b6040516100a9919061033e565b60405180910390f35b600081815481106100c257600080fd5b906000526020600020016000915054906101000a900473ffffffffffffffffffffffffffffffffffffffff1681565b6060600080548060200260200160405190810160405280929190818152602001828054801561017557602002820191906000526020600020905b8160009054906101000a900473ffffffffffffffffffffffffffffffffffffffff1673ffffffffffffffffffffffffffffffffffffffff168152602001906001019080831161012b575b5050505050905090565b60008080549050905090565b600080fd5b6000819050919050565b6101a381610190565b81146101ae57600080fd5b50565b6000813590506101c08161019a565b92915050565b6000602082840312156101dc576101db61018b565b5b60006101ea848285016101b1565b91505092915050565b600073ffffffffffffffffffffffffffffffffffffffff82169050919050565b600061021e826101f3565b9050919050565b61022e81610213565b82525050565b60006020820190506102496000830184610225565b92915050565b600081519050919050565b600082825260208201905092915050565b6000819050602082019050919050565b61028481610213565b82525050565b6000610296838361027b565b60208301905092915050565b6000602082019050919050565b60006102ba8261024f565b6102c4818561025a565b93506102cf8361026b565b8060005b838110156103005781516102e7888261028a565b97506102f2836102a2565b9250506001810190506102d3565b5085935050505092915050565b6000602082019050818103600083015261032781846102af565b905092915050565b61033881610190565b82525050565b6000602082019050610353600083018461032f565b9291505056fea2646970667358221220abcd3f5b31b0b4d6abd983acc3442a12c178e2808438ff65d5e8d229178077be64736f6c63430008180033",
  "linkReferences": {},
  "deployedLinkReferences": {}
}