{
  "_format": "hh-sol-artifact-1",
  "contractName": "MultiSigWallet",
  "sourceName": "contracts/Multisig.sol",
  "abi": [
    {
      "inputs": [
        {
          "internalType": "address[]",
          "name": "_owners",
          "type": "address[]"
        },
        {
          "internalType": "uint256",
          "name": "_numConfirmationsRequired",
          "type": "uint256"
        }
      ],
      "stateMutability": "nonpayable",
      "type": "constructor"
    },
    {
      "anonymous": false,
      "inputs": [
        {
          "indexed": true,
          "internalType": "address",
          "name": "owner",
          "type": "address"
        },
        {
          "indexed": true,
          "internalType": "address",
          "name": "atlasAddress",
          "type": "address"
        }
      ],
      "name": "AtlasActivated",
      "type": "event"
    },
    {
      "anonymous": false,
      "inputs": [
        {
          "indexed": true,
          "internalType": "address",
          "name": "owner",
          "type": "address"
        },
        {
          "indexed": true,
          "internalType": "address",
          "name": "atlasAddress",
          "type": "address"
        }
      ],
      "name": "AtlasActivationProposed",
      "type": "event"
    },
    {
      "anonymous": false,
      "inputs": [
        {
          "indexed": true,
          "internalType": "address",
          "name": "owner",
          "type": "address"
        },
        {
          "indexed": true,
          "internalType": "uint256",
          "name": "txIndex",
          "type": "uint256"
        }
      ],
      "name": "AtlasConfirmed",
      "type": "event"
    },
    {
      "anonymous": false,
      "inputs": [
        {
          "indexed": true,
          "internalType": "address",
          "name": "owner",
          "type": "address"
        }
      ],
      "name": "AtlasDeactivated",
      "type": "event"
    },
    {
      "anonymous": false,
      "inputs": [
        {
          "indexed": true,
          "internalType": "address",
          "name": "owner",
          "type": "address"
        }
      ],
      "name": "AtlasDeactivationProposed",
      "type": "event"
    },
    {
      "anonymous": false,
      "inputs": [
        {
          "indexed": true,
          "internalType": "address",
          "name": "owner",
          "type": "address"
        },
        {
          "indexed": true,
          "internalType": "uint256",
          "name": "txIndex",
          "type": "uint256"
        }
      ],
      "name": "ConfirmTransaction",
      "type": "event"
    },
    {
      "anonymous": false,
      "inputs": [
        {
          "indexed": true,
          "internalType": "address",
          "name": "sender",
          "type": "address"
        },
        {
          "indexed": false,
          "internalType": "uint256",
          "name": "amount",
          "type": "uint256"
        },
        {
          "indexed": false,
          "internalType": "uint256",
          "name": "balance",
          "type": "uint256"
        }
      ],
      "name": "Deposit",
      "type": "event"
    },
    {
      "anonymous": false,
      "inputs": [
        {
          "indexed": true,
          "internalType": "address",
          "name": "owner",
          "type": "address"
        },
        {
          "indexed": true,
          "internalType": "uint256",
          "name": "txIndex",
          "type": "uint256"
        }
      ],
      "name": "ExecuteTransaction",
      "type": "event"
    },
    {
      "anonymous": false,
      "inputs": [
        {
          "indexed": true,
          "internalType": "address",
          "name": "owner",
          "type": "address"
        },
        {
          "indexed": true,
          "internalType": "uint256",
          "name": "txIndex",
          "type": "uint256"
        }
      ],
      "name": "RevokeConfirmation",
      "type": "event"
    },
    {
      "anonymous": false,
      "inputs": [
        {
          "indexed": true,
          "internalType": "address",
          "name": "owner",
          "type": "address"
        },
        {
          "indexed": true,
          "internalType": "uint256",
          "name": "txIndex",
          "type": "uint256"
        },
        {
          "indexed": true,
          "internalType": "address",
          "name": "to",
          "type": "address"
        },
        {
          "indexed": false,
          "internalType": "uint256",
          "name": "value",
          "type": "uint256"
        },
        {
          "indexed": false,
          "internalType": "bytes",
          "name": "data",
          "type": "bytes"
        }
      ],
      "name": "SubmitTransaction",
      "type": "event"
    },
    {
      "inputs": [],
      "name": "activateAtlas",
      "outputs": [],
      "stateMutability": "nonpayable",
      "type": "function"
    },
    {
      "inputs": [],
      "name": "atlasAddress",
      "outputs": [
        {
          "internalType": "address",
          "name": "",
          "type": "address"
        }
      ],
      "stateMutability": "view",
      "type": "function"
    },
    {
      "inputs": [],
      "name": "atlasChangeMinTime",
      "outputs": [
        {
          "internalType": "uint256",
          "name": "",
          "type": "uint256"
        }
      ],
      "stateMutability": "view",
      "type": "function"
    },
    {
      "inputs": [],
      "name": "atlasProposedActivationAddress",
      "outputs": [
        {
          "internalType": "address",
          "name": "",
          "type": "address"
        }
      ],
      "stateMutability": "view",
      "type": "function"
    },
    {
      "inputs": [],
      "name": "atlasProposedActivationTime",
      "outputs": [
        {
          "internalType": "uint256",
          "name": "",
          "type": "uint256"
        }
      ],
      "stateMutability": "view",
      "type": "function"
    },
    {
      "inputs": [],
      "name": "atlasProposedDeactivationTime",
      "outputs": [
        {
          "internalType": "uint256",
          "name": "",
          "type": "uint256"
        }
      ],
      "stateMutability": "view",
      "type": "function"
    },
    {
      "inputs": [
        {
          "internalType": "uint256",
          "name": "_txIndex",
          "type": "uint256"
        },
        {
          "internalType": "bytes",
          "name": "signature",
          "type": "bytes"
        }
      ],
      "name": "confirmAtlas",
      "outputs": [],
      "stateMutability": "nonpayable",
      "type": "function"
    },
    {
      "inputs": [
        {
          "internalType": "uint256",
          "name": "_txIndex",
          "type": "uint256"
        }
      ],
      "name": "confirmTransaction",
      "outputs": [],
      "stateMutability": "nonpayable",
      "type": "function"
    },
    {
      "inputs": [],
      "name": "deactivateAtlas",
      "outputs": [],
      "stateMutability": "nonpayable",
      "type": "function"
    },
    {
      "inputs": [
        {
          "internalType": "uint256",
          "name": "_txIndex",
          "type": "uint256"
        }
      ],
      "name": "executeTransaction",
      "outputs": [],
      "stateMutability": "nonpayable",
      "type": "function"
    },
    {
      "inputs": [
        {
          "internalType": "uint256",
          "name": "_txIndex",
          "type": "uint256"
        }
      ],
      "name": "getApprovedOwners",
      "outputs": [
        {
          "internalType": "address[]",
          "name": "",
          "type": "address[]"
        }
      ],
      "stateMutability": "view",
      "type": "function"
    },
    {
      "inputs": [],
      "name": "getOwners",
      "outputs": [
        {
          "internalType": "address[]",
          "name": "",
          "type": "address[]"
        }
      ],
      "stateMutability": "view",
      "type": "function"
    },
    {
      "inputs": [
        {
          "internalType": "uint256",
          "name": "_txIndex",
          "type": "uint256"
        }
      ],
      "name": "getTransaction",
      "outputs": [
        {
          "internalType": "address",
          "name": "to",
          "type": "address"
        },
        {
          "internalType": "uint256",
          "name": "value",
          "type": "uint256"
        },
        {
          "internalType": "bytes",
          "name": "data",
          "type": "bytes"
        },
        {
          "internalType": "bool",
          "name": "executed",
          "type": "bool"
        },
        {
          "internalType": "uint256",
          "name": "numConfirmations",
          "type": "uint256"
        }
      ],
      "stateMutability": "view",
      "type": "function"
    },
    {
      "inputs": [],
      "name": "getTransactionCount",
      "outputs": [
        {
          "internalType": "uint256",
          "name": "",
          "type": "uint256"
        }
      ],
      "stateMutability": "view",
      "type": "function"
    },
    {
      "inputs": [],
      "name": "getTransactions",
      "outputs": [
        {
          "components": [
            {
              "internalType": "address",
              "name": "to",
              "type": "address"
            },
            {
              "internalType": "uint256",
              "name": "value",
              "type": "uint256"
            },
            {
              "internalType": "bytes",
              "name": "data",
              "type": "bytes"
            },
            {
              "internalType": "bool",
              "name": "executed",
              "type": "bool"
            },
            {
              "internalType": "uint256",
              "name": "numConfirmations",
              "type": "uint256"
            },
            {
              "internalType": "bool",
              "name": "atlasConfirmed",
              "type": "bool"
            }
          ],
          "internalType": "struct MultiSigWallet.Transaction[]",
          "name": "",
          "type": "tuple[]"
        }
      ],
      "stateMutability": "view",
      "type": "function"
    },
    {
      "inputs": [
        {
          "internalType": "uint256",
          "name": "",
          "type": "uint256"
        },
        {
          "internalType": "address",
          "name": "",
          "type": "address"
        }
      ],
      "name": "isConfirmed",
      "outputs": [
        {
          "internalType": "bool",
          "name": "",
          "type": "bool"
        }
      ],
      "stateMutability": "view",
      "type": "function"
    },
    {
      "inputs": [
        {
          "internalType": "address",
          "name": "",
          "type": "address"
        }
      ],
      "name": "isOwner",
      "outputs": [
        {
          "internalType": "bool",
          "name": "",
          "type": "bool"
        }
      ],
      "stateMutability": "view",
      "type": "function"
    },
    {
      "inputs": [],
      "name": "numConfirmationsRequired",
      "outputs": [
        {
          "internalType": "uint256",
          "name": "",
          "type": "uint256"
        }
      ],
      "stateMutability": "view",
      "type": "function"
    },
    {
      "inputs": [
        {
          "internalType": "uint256",
          "name": "",
          "type": "uint256"
        }
      ],
      "name": "owners",
      "outputs": [
        {
          "internalType": "address",
          "name": "",
          "type": "address"
        }
      ],
      "stateMutability": "view",
      "type": "function"
    },
    {
      "inputs": [
        {
          "internalType": "address",
          "name": "_atlasAddress",
          "type": "address"
        }
      ],
      "name": "proposeAtlasActivation",
      "outputs": [],
      "stateMutability": "nonpayable",
      "type": "function"
    },
    {
      "inputs": [],
      "name": "proposeAtlasDeactivation",
      "outputs": [],
      "stateMutability": "nonpayable",
      "type": "function"
    },
    {
      "inputs": [
        {
          "internalType": "uint256",
          "name": "_txIndex",
          "type": "uint256"
        }
      ],
      "name": "revokeConfirmation",
      "outputs": [],
      "stateMutability": "nonpayable",
      "type": "function"
    },
    {
      "inputs": [
        {
          "internalType": "address",
          "name": "_to",
          "type": "address"
        },
        {
          "internalType": "uint256",
          "name": "_value",
          "type": "uint256"
        },
        {
          "internalType": "bytes",
          "name": "_data",
          "type": "bytes"
        }
      ],
      "name": "submitTransaction",
      "outputs": [],
      "stateMutability": "nonpayable",
      "type": "function"
    },
    {
      "inputs": [
        {
          "internalType": "uint256",
          "name": "",
          "type": "uint256"
        }
      ],
      "name": "transactions",
      "outputs": [
        {
          "internalType": "address",
          "name": "to",
          "type": "address"
        },
        {
          "internalType": "uint256",
          "name": "value",
          "type": "uint256"
        },
        {
          "internalType": "bytes",
          "name": "data",
          "type": "bytes"
        },
        {
          "internalType": "bool",
          "name": "executed",
          "type": "bool"
        },
        {
          "internalType": "uint256",
          "name": "numConfirmations",
          "type": "uint256"
        },
        {
          "internalType": "bool",
          "name": "atlasConfirmed",
          "type": "bool"
        }
      ],
      "stateMutability": "view",
      "type": "function"
    },
    {
      "stateMutability": "payable",
      "type": "receive"
    }
  ],
  "bytecode": "0x6080604052603c6007553480156200001657600080fd5b5060405162003fbb38038062003fbb83398181016040528101906200003c91906200050a565b600082511162000083576040517f08c379a00000000000000000000000000000000000000000000000000000000081526004016200007a90620005d1565b60405180910390fd5b60008111801562000095575081518111155b620000d7576040517f08c379a0000000000000000000000000000000000000000000000000000000008152600401620000ce9062000669565b60405180910390fd5b60005b8251811015620002d1576000838281518110620000fc57620000fb6200068b565b5b60200260200101519050600073ffffffffffffffffffffffffffffffffffffffff168173ffffffffffffffffffffffffffffffffffffffff160362000178576040517f08c379a00000000000000000000000000000000000000000000000000000000081526004016200016f906200070a565b60405180910390fd5b600160008273ffffffffffffffffffffffffffffffffffffffff1673ffffffffffffffffffffffffffffffffffffffff16815260200190815260200160002060009054906101000a900460ff161562000208576040517f08c379a0000000000000000000000000000000000000000000000000000000008152600401620001ff906200077c565b60405180910390fd5b60018060008373ffffffffffffffffffffffffffffffffffffffff1673ffffffffffffffffffffffffffffffffffffffff16815260200190815260200160002060006101000a81548160ff0219169083151502179055506000819080600181540180825580915050600190039060005260206000200160009091909190916101000a81548173ffffffffffffffffffffffffffffffffffffffff021916908373ffffffffffffffffffffffffffffffffffffffff160217905550508080600101915050620000da565b508060028190555050506200079e565b6000604051905090565b600080fd5b600080fd5b600080fd5b6000601f19601f8301169050919050565b7f4e487b7100000000000000000000000000000000000000000000000000000000600052604160045260246000fd5b6200034582620002fa565b810181811067ffffffffffffffff821117156200036757620003666200030b565b5b80604052505050565b60006200037c620002e1565b90506200038a82826200033a565b919050565b600067ffffffffffffffff821115620003ad57620003ac6200030b565b5b602082029050602081019050919050565b600080fd5b600073ffffffffffffffffffffffffffffffffffffffff82169050919050565b6000620003f082620003c3565b9050919050565b6200040281620003e3565b81146200040e57600080fd5b50565b6000815190506200042281620003f7565b92915050565b60006200043f62000439846200038f565b62000370565b90508083825260208201905060208402830185811115620004655762000464620003be565b5b835b818110156200049257806200047d888262000411565b84526020840193505060208101905062000467565b5050509392505050565b600082601f830112620004b457620004b3620002f5565b5b8151620004c684826020860162000428565b91505092915050565b6000819050919050565b620004e481620004cf565b8114620004f057600080fd5b50565b6000815190506200050481620004d9565b92915050565b60008060408385031215620005245762000523620002eb565b5b600083015167ffffffffffffffff811115620005455762000544620002f0565b5b62000553858286016200049c565b92505060206200056685828601620004f3565b9150509250929050565b600082825260208201905092915050565b7f6f776e6572732072657175697265640000000000000000000000000000000000600082015250565b6000620005b9600f8362000570565b9150620005c68262000581565b602082019050919050565b60006020820190508181036000830152620005ec81620005aa565b9050919050565b7f696e76616c6964206e756d626572206f6620726571756972656420636f6e666960008201527f726d6174696f6e73000000000000000000000000000000000000000000000000602082015250565b60006200065160288362000570565b91506200065e82620005f3565b604082019050919050565b60006020820190508181036000830152620006848162000642565b9050919050565b7f4e487b7100000000000000000000000000000000000000000000000000000000600052603260045260246000fd5b7f696e76616c6964206f776e657200000000000000000000000000000000000000600082015250565b6000620006f2600d8362000570565b9150620006ff82620006ba565b602082019050919050565b600060208201905081810360008301526200072581620006e3565b9050919050565b7f6f776e6572206e6f7420756e6971756500000000000000000000000000000000600082015250565b60006200076460108362000570565b915062000771826200072c565b602082019050919050565b60006020820190508181036000830152620007978162000755565b9050919050565b61380d80620007ae6000396000f3fe60806040526004361061014f5760003560e01c806380f59a65116100b6578063c64274741161006f578063c64274741461050a578063d0549b8514610533578063da2f43531461055e578063ee22610b14610589578063ee33f305146105b2578063ee48deff146105c9576101a6565b806380f59a65146103e157806383920e901461041e5780639ace38c214610449578063a0e67e2b1461048b578063a2b507ce146104b6578063c01a8c84146104e1576101a6565b806333ea3dc81161010857806333ea3dc8146102bb5780633b9361ff146102fc5780634939f968146103275780634f67de49146103645780636e32a0021461038f578063764e45a3146103b8576101a6565b8063025e7c27146101ab57806312891c8b146101e857806320ea8d8614610213578063286cd58e1461023c5780632e7700f0146102535780632f54bf6e1461027e576101a6565b366101a6573373ffffffffffffffffffffffffffffffffffffffff167f90890809c654f11d6e72a28fa60149770a0d11ec6c92319d6ceb2bb0a4ea1a15344760405161019c929190612341565b60405180910390a2005b600080fd5b3480156101b757600080fd5b506101d260048036038101906101cd91906123aa565b6105e0565b6040516101df9190612418565b60405180910390f35b3480156101f457600080fd5b506101fd61061f565b60405161020a9190612433565b60405180910390f35b34801561021f57600080fd5b5061023a600480360381019061023591906123aa565b610625565b005b34801561024857600080fd5b506102516108ff565b005b34801561025f57600080fd5b50610268610a6c565b6040516102759190612433565b60405180910390f35b34801561028a57600080fd5b506102a560048036038101906102a0919061247a565b610a79565b6040516102b291906124c2565b60405180910390f35b3480156102c757600080fd5b506102e260048036038101906102dd91906123aa565b610a99565b6040516102f395949392919061256d565b60405180910390f35b34801561030857600080fd5b50610311610bac565b60405161031e9190612433565b60405180910390f35b34801561033357600080fd5b5061034e600480360381019061034991906123aa565b610bb2565b60405161035b9190612685565b60405180910390f35b34801561037057600080fd5b50610379610e39565b6040516103869190612433565b60405180910390f35b34801561039b57600080fd5b506103b660048036038101906103b191906127dc565b610e3f565b005b3480156103c457600080fd5b506103df60048036038101906103da919061247a565b611178565b005b3480156103ed57600080fd5b5061040860048036038101906104039190612838565b6112a9565b60405161041591906124c2565b60405180910390f35b34801561042a57600080fd5b506104336112d8565b6040516104409190612a2b565b60405180910390f35b34801561045557600080fd5b50610470600480360381019061046b91906123aa565b611469565b60405161048296959493929190612a4d565b60405180910390f35b34801561049757600080fd5b506104a0611577565b6040516104ad9190612685565b60405180910390f35b3480156104c257600080fd5b506104cb611605565b6040516104d89190612418565b60405180910390f35b3480156104ed57600080fd5b50610508600480360381019061050391906123aa565b61162b565b005b34801561051657600080fd5b50610531600480360381019061052c9190612ab5565b611908565b005b34801561053f57600080fd5b50610548611b34565b6040516105559190612433565b60405180910390f35b34801561056a57600080fd5b50610573611b3a565b6040516105809190612418565b60405180910390f35b34801561059557600080fd5b506105b060048036038101906105ab91906123aa565b611b60565b005b3480156105be57600080fd5b506105c7611f00565b005b3480156105d557600080fd5b506105de612109565b005b600081815481106105f057600080fd5b906000526020600020016000915054906101000a900473ffffffffffffffffffffffffffffffffffffffff1681565b60045481565b600160003373ffffffffffffffffffffffffffffffffffffffff1673ffffffffffffffffffffffffffffffffffffffff16815260200190815260200160002060009054906101000a900460ff166106b1576040517f08c379a00000000000000000000000000000000000000000000000000000000081526004016106a890612b81565b60405180910390fd5b8060098054905081106106f9576040517f08c379a00000000000000000000000000000000000000000000000000000000081526004016106f090612bed565b60405180910390fd5b816009818154811061070e5761070d612c0d565b5b906000526020600020906006020160030160009054906101000a900460ff161561076d576040517f08c379a000000000000000000000000000000000000000000000000000000000815260040161076490612c88565b60405180910390fd5b60006009848154811061078357610782612c0d565b5b906000526020600020906006020190506008600085815260200190815260200160002060003373ffffffffffffffffffffffffffffffffffffffff1673ffffffffffffffffffffffffffffffffffffffff16815260200190815260200160002060009054906101000a900460ff16610830576040517f08c379a000000000000000000000000000000000000000000000000000000000815260040161082790612cf4565b60405180910390fd5b60018160040160008282546108459190612d43565b9250508190555060006008600086815260200190815260200160002060003373ffffffffffffffffffffffffffffffffffffffff1673ffffffffffffffffffffffffffffffffffffffff16815260200190815260200160002060006101000a81548160ff021916908315150217905550833373ffffffffffffffffffffffffffffffffffffffff167ff0dca620e2e81f7841d07bcc105e1704fb01475b278a9d4c236e1c62945edd5560405160405180910390a350505050565b600160003373ffffffffffffffffffffffffffffffffffffffff1673ffffffffffffffffffffffffffffffffffffffff16815260200190815260200160002060009054906101000a900460ff1661098b576040517f08c379a000000000000000000000000000000000000000000000000000000000815260040161098290612b81565b60405180910390fd5b60075460065461099b9190612d77565b4210156109dd576040517f08c379a00000000000000000000000000000000000000000000000000000000081526004016109d490612e1d565b60405180910390fd5b6000600360006101000a81548173ffffffffffffffffffffffffffffffffffffffff021916908373ffffffffffffffffffffffffffffffffffffffff16021790555060006006819055503373ffffffffffffffffffffffffffffffffffffffff167f7c0dcaf7aa7ae26973ea4353b08cab0544b136f514449911cbae13d8626c6eeb60405160405180910390a2565b6000600980549050905090565b60016020528060005260406000206000915054906101000a900460ff1681565b6000806060600080600060098781548110610ab757610ab6612c0d565b5b906000526020600020906006020190508060000160009054906101000a900473ffffffffffffffffffffffffffffffffffffffff168160010154826002018360030160009054906101000a900460ff168460040154828054610b1890612e6c565b80601f0160208091040260200160405190810160405280929190818152602001828054610b4490612e6c565b8015610b915780601f10610b6657610100808354040283529160200191610b91565b820191906000526020600020905b815481529060010190602001808311610b7457829003601f168201915b50505050509250955095509550955095505091939590929450565b60075481565b60606000808054905067ffffffffffffffff811115610bd457610bd36126b1565b5b604051908082528060200260200182016040528015610c025781602001602082028036833780820191505090505b5090506000805b600080549050811015610d5f57600860008681526020019081526020016000206000808381548110610c3e57610c3d612c0d565b5b9060005260206000200160009054906101000a900473ffffffffffffffffffffffffffffffffffffffff1673ffffffffffffffffffffffffffffffffffffffff1673ffffffffffffffffffffffffffffffffffffffff16815260200190815260200160002060009054906101000a900460ff1615610d525760008181548110610cca57610cc9612c0d565b5b9060005260206000200160009054906101000a900473ffffffffffffffffffffffffffffffffffffffff16838381518110610d0857610d07612c0d565b5b602002602001019073ffffffffffffffffffffffffffffffffffffffff16908173ffffffffffffffffffffffffffffffffffffffff1681525050600182610d4f9190612d77565b91505b8080600101915050610c09565b5060008167ffffffffffffffff811115610d7c57610d7b6126b1565b5b604051908082528060200260200182016040528015610daa5781602001602082028036833780820191505090505b50905060005b82811015610e2d57838181518110610dcb57610dca612c0d565b5b6020026020010151828281518110610de657610de5612c0d565b5b602002602001019073ffffffffffffffffffffffffffffffffffffffff16908173ffffffffffffffffffffffffffffffffffffffff16815250508080600101915050610db0565b50809350505050919050565b60065481565b600160003373ffffffffffffffffffffffffffffffffffffffff1673ffffffffffffffffffffffffffffffffffffffff16815260200190815260200160002060009054906101000a900460ff16610ecb576040517f08c379a0000000000000000000000000000000000000000000000000000000008152600401610ec290612b81565b60405180910390fd5b600073ffffffffffffffffffffffffffffffffffffffff16600360009054906101000a900473ffffffffffffffffffffffffffffffffffffffff1673ffffffffffffffffffffffffffffffffffffffff1603610f5c576040517f08c379a0000000000000000000000000000000000000000000000000000000008152600401610f5390612ee9565b60405180910390fd5b6009805490508210610fa3576040517f08c379a0000000000000000000000000000000000000000000000000000000008152600401610f9a90612bed565b60405180910390fd5b600060098381548110610fb957610fb8612c0d565b5b906000526020600020906006020190508060050160009054906101000a900460ff161561101b576040517f08c379a000000000000000000000000000000000000000000000000000000000815260040161101290612f55565b60405180910390fd5b60008360405160200161102e9190612f96565b6040516020818303038152906040528051906020012090506000816040516020016110599190613033565b604051602081830303815290604052805190602001209050600061107d82866121e1565b9050600360009054906101000a900473ffffffffffffffffffffffffffffffffffffffff1673ffffffffffffffffffffffffffffffffffffffff168173ffffffffffffffffffffffffffffffffffffffff161461110f576040517f08c379a0000000000000000000000000000000000000000000000000000000008152600401611106906130a5565b60405180910390fd5b853373ffffffffffffffffffffffffffffffffffffffff167f10e722dc945e7cfb574a5239da96aac93a753b1c50c571565cf3315de66f6db760405160405180910390a360018460050160006101000a81548160ff021916908315150217905550505050505050565b600160003373ffffffffffffffffffffffffffffffffffffffff1673ffffffffffffffffffffffffffffffffffffffff16815260200190815260200160002060009054906101000a900460ff16611204576040517f08c379a00000000000000000000000000000000000000000000000000000000081526004016111fb90612b81565b60405180910390fd5b4260048190555080600560006101000a81548173ffffffffffffffffffffffffffffffffffffffff021916908373ffffffffffffffffffffffffffffffffffffffff1602179055508073ffffffffffffffffffffffffffffffffffffffff163373ffffffffffffffffffffffffffffffffffffffff167fac437fe15d4ff514cc3e44edc246cd33ad99a2542175ff3d96bcff4780eec7ff60405160405180910390a350565b60086020528160005260406000206020528060005260406000206000915091509054906101000a900460ff1681565b60606009805480602002602001604051908101604052809291908181526020016000905b8282101561146057838290600052602060002090600602016040518060c00160405290816000820160009054906101000a900473ffffffffffffffffffffffffffffffffffffffff1673ffffffffffffffffffffffffffffffffffffffff1673ffffffffffffffffffffffffffffffffffffffff1681526020016001820154815260200160028201805461138f90612e6c565b80601f01602080910402602001604051908101604052809291908181526020018280546113bb90612e6c565b80156114085780601f106113dd57610100808354040283529160200191611408565b820191906000526020600020905b8154815290600101906020018083116113eb57829003601f168201915b505050505081526020016003820160009054906101000a900460ff16151515158152602001600482015481526020016005820160009054906101000a900460ff161515151581525050815260200190600101906112fc565b50505050905090565b6009818154811061147957600080fd5b90600052602060002090600602016000915090508060000160009054906101000a900473ffffffffffffffffffffffffffffffffffffffff16908060010154908060020180546114c890612e6c565b80601f01602080910402602001604051908101604052809291908181526020018280546114f490612e6c565b80156115415780601f1061151657610100808354040283529160200191611541565b820191906000526020600020905b81548152906001019060200180831161152457829003601f168201915b5050505050908060030160009054906101000a900460ff16908060040154908060050160009054906101000a900460ff16905086565b606060008054806020026020016040519081016040528092919081815260200182805480156115fb57602002820191906000526020600020905b8160009054906101000a900473ffffffffffffffffffffffffffffffffffffffff1673ffffffffffffffffffffffffffffffffffffffff16815260200190600101908083116115b1575b5050505050905090565b600360009054906101000a900473ffffffffffffffffffffffffffffffffffffffff1681565b600160003373ffffffffffffffffffffffffffffffffffffffff1673ffffffffffffffffffffffffffffffffffffffff16815260200190815260200160002060009054906101000a900460ff166116b7576040517f08c379a00000000000000000000000000000000000000000000000000000000081526004016116ae90612b81565b60405180910390fd5b8060098054905081106116ff576040517f08c379a00000000000000000000000000000000000000000000000000000000081526004016116f690612bed565b60405180910390fd5b816009818154811061171457611713612c0d565b5b906000526020600020906006020160030160009054906101000a900460ff1615611773576040517f08c379a000000000000000000000000000000000000000000000000000000000815260040161176a90612c88565b60405180910390fd5b826008600082815260200190815260200160002060003373ffffffffffffffffffffffffffffffffffffffff1673ffffffffffffffffffffffffffffffffffffffff16815260200190815260200160002060009054906101000a900460ff1615611812576040517f08c379a000000000000000000000000000000000000000000000000000000000815260040161180990613111565b60405180910390fd5b60006009858154811061182857611827612c0d565b5b90600052602060002090600602019050600181600401600082825461184d9190612d77565b9250508190555060016008600087815260200190815260200160002060003373ffffffffffffffffffffffffffffffffffffffff1673ffffffffffffffffffffffffffffffffffffffff16815260200190815260200160002060006101000a81548160ff021916908315150217905550843373ffffffffffffffffffffffffffffffffffffffff167f5cbe105e36805f7820e291f799d5794ff948af2a5f664e580382defb6339004160405160405180910390a35050505050565b600160003373ffffffffffffffffffffffffffffffffffffffff1673ffffffffffffffffffffffffffffffffffffffff16815260200190815260200160002060009054906101000a900460ff16611994576040517f08c379a000000000000000000000000000000000000000000000000000000000815260040161198b90612b81565b60405180910390fd5b6000600980549050905060096040518060c001604052808673ffffffffffffffffffffffffffffffffffffffff1681526020018581526020018481526020016000151581526020016000815260200160001515815250908060018154018082558091505060019003906000526020600020906006020160009091909190915060008201518160000160006101000a81548173ffffffffffffffffffffffffffffffffffffffff021916908373ffffffffffffffffffffffffffffffffffffffff160217905550602082015181600101556040820151816002019081611a7991906132dd565b5060608201518160030160006101000a81548160ff0219169083151502179055506080820151816004015560a08201518160050160006101000a81548160ff02191690831515021790555050508373ffffffffffffffffffffffffffffffffffffffff16813373ffffffffffffffffffffffffffffffffffffffff167fd5a05bf70715ad82a09a756320284a1b54c9ff74cd0f8cce6219e79b563fe59d8686604051611b269291906133af565b60405180910390a450505050565b60025481565b600560009054906101000a900473ffffffffffffffffffffffffffffffffffffffff1681565b600160003373ffffffffffffffffffffffffffffffffffffffff1673ffffffffffffffffffffffffffffffffffffffff16815260200190815260200160002060009054906101000a900460ff16611bec576040517f08c379a0000000000000000000000000000000000000000000000000000000008152600401611be390612b81565b60405180910390fd5b806009805490508110611c34576040517f08c379a0000000000000000000000000000000000000000000000000000000008152600401611c2b90612bed565b60405180910390fd5b8160098181548110611c4957611c48612c0d565b5b906000526020600020906006020160030160009054906101000a900460ff1615611ca8576040517f08c379a0000000000000000000000000000000000000000000000000000000008152600401611c9f90612c88565b60405180910390fd5b600060098481548110611cbe57611cbd612c0d565b5b9060005260206000209060060201905060025481600401541015611d17576040517f08c379a0000000000000000000000000000000000000000000000000000000008152600401611d0e9061342b565b60405180910390fd5b600073ffffffffffffffffffffffffffffffffffffffff16600360009054906101000a900473ffffffffffffffffffffffffffffffffffffffff1673ffffffffffffffffffffffffffffffffffffffff1614611dbf578060050160009054906101000a900460ff16611dbe576040517f08c379a0000000000000000000000000000000000000000000000000000000008152600401611db590613497565b60405180910390fd5b5b60018160030160006101000a81548160ff02191690831515021790555060008160000160009054906101000a900473ffffffffffffffffffffffffffffffffffffffff1673ffffffffffffffffffffffffffffffffffffffff16826001015483600201604051611e2f9190613545565b60006040518083038185875af1925050503d8060008114611e6c576040519150601f19603f3d011682016040523d82523d6000602084013e611e71565b606091505b5050905080611eb5576040517f08c379a0000000000000000000000000000000000000000000000000000000008152600401611eac906135a8565b60405180910390fd5b843373ffffffffffffffffffffffffffffffffffffffff167f5445f318f4f5fcfb66592e68e0cc5822aa15664039bd5f0ffde24c5a8142b1ac60405160405180910390a35050505050565b600160003373ffffffffffffffffffffffffffffffffffffffff1673ffffffffffffffffffffffffffffffffffffffff16815260200190815260200160002060009054906101000a900460ff16611f8c576040517f08c379a0000000000000000000000000000000000000000000000000000000008152600401611f8390612b81565b60405180910390fd5b600754600454611f9c9190612d77565b421015611fde576040517f08c379a0000000000000000000000000000000000000000000000000000000008152600401611fd59061363a565b60405180910390fd5b600560009054906101000a900473ffffffffffffffffffffffffffffffffffffffff16600360006101000a81548173ffffffffffffffffffffffffffffffffffffffff021916908373ffffffffffffffffffffffffffffffffffffffff1602179055506000600560006101000a81548173ffffffffffffffffffffffffffffffffffffffff021916908373ffffffffffffffffffffffffffffffffffffffff1602179055506000600481905550600360009054906101000a900473ffffffffffffffffffffffffffffffffffffffff1673ffffffffffffffffffffffffffffffffffffffff163373ffffffffffffffffffffffffffffffffffffffff167f352221e0918bc9acaedf515ea1767f113707b7e0d27df44076dcb9ae6260bdd360405160405180910390a3565b600160003373ffffffffffffffffffffffffffffffffffffffff1673ffffffffffffffffffffffffffffffffffffffff16815260200190815260200160002060009054906101000a900460ff16612195576040517f08c379a000000000000000000000000000000000000000000000000000000000815260040161218c90612b81565b60405180910390fd5b426006819055503373ffffffffffffffffffffffffffffffffffffffff167f9e0cd033abfd09bd415001ae5802030804e91429d644d0fac29350914c3db24360405160405180910390a2565b6000806000806121f085612250565b925092509250600186828585604051600081526020016040526040516122199493929190613685565b6020604051602081039080840390855afa15801561223b573d6000803e3d6000fd5b50505060206040510351935050505092915050565b60008060006041845114612299576040517f08c379a000000000000000000000000000000000000000000000000000000000815260040161229090613716565b60405180910390fd5b6020840151925060408401519150606084015160001a9050601b8160ff1610156122cd57601b816122ca9190613736565b90505b601b8160ff1614806122e25750601c8160ff16145b612321576040517f08c379a0000000000000000000000000000000000000000000000000000000008152600401612318906137b7565b60405180910390fd5b9193909250565b6000819050919050565b61233b81612328565b82525050565b60006040820190506123566000830185612332565b6123636020830184612332565b9392505050565b6000604051905090565b600080fd5b600080fd5b61238781612328565b811461239257600080fd5b50565b6000813590506123a48161237e565b92915050565b6000602082840312156123c0576123bf612374565b5b60006123ce84828501612395565b91505092915050565b600073ffffffffffffffffffffffffffffffffffffffff82169050919050565b6000612402826123d7565b9050919050565b612412816123f7565b82525050565b600060208201905061242d6000830184612409565b92915050565b60006020820190506124486000830184612332565b92915050565b612457816123f7565b811461246257600080fd5b50565b6000813590506124748161244e565b92915050565b6000602082840312156124905761248f612374565b5b600061249e84828501612465565b91505092915050565b60008115159050919050565b6124bc816124a7565b82525050565b60006020820190506124d760008301846124b3565b92915050565b600081519050919050565b600082825260208201905092915050565b60005b838110156125175780820151818401526020810190506124fc565b60008484015250505050565b6000601f19601f8301169050919050565b600061253f826124dd565b61254981856124e8565b93506125598185602086016124f9565b61256281612523565b840191505092915050565b600060a0820190506125826000830188612409565b61258f6020830187612332565b81810360408301526125a18186612534565b90506125b060608301856124b3565b6125bd6080830184612332565b9695505050505050565b600081519050919050565b600082825260208201905092915050565b6000819050602082019050919050565b6125fc816123f7565b82525050565b600061260e83836125f3565b60208301905092915050565b6000602082019050919050565b6000612632826125c7565b61263c81856125d2565b9350612647836125e3565b8060005b8381101561267857815161265f8882612602565b975061266a8361261a565b92505060018101905061264b565b5085935050505092915050565b6000602082019050818103600083015261269f8184612627565b905092915050565b600080fd5b600080fd5b7f4e487b7100000000000000000000000000000000000000000000000000000000600052604160045260246000fd5b6126e982612523565b810181811067ffffffffffffffff82111715612708576127076126b1565b5b80604052505050565b600061271b61236a565b905061272782826126e0565b919050565b600067ffffffffffffffff821115612747576127466126b1565b5b61275082612523565b9050602081019050919050565b82818337600083830152505050565b600061277f61277a8461272c565b612711565b90508281526020810184848401111561279b5761279a6126ac565b5b6127a684828561275d565b509392505050565b600082601f8301126127c3576127c26126a7565b5b81356127d384826020860161276c565b91505092915050565b600080604083850312156127f3576127f2612374565b5b600061280185828601612395565b925050602083013567ffffffffffffffff81111561282257612821612379565b5b61282e858286016127ae565b9150509250929050565b6000806040838503121561284f5761284e612374565b5b600061285d85828601612395565b925050602061286e85828601612465565b9150509250929050565b600081519050919050565b600082825260208201905092915050565b6000819050602082019050919050565b6128ad81612328565b82525050565b600082825260208201905092915050565b60006128cf826124dd565b6128d981856128b3565b93506128e98185602086016124f9565b6128f281612523565b840191505092915050565b612906816124a7565b82525050565b600060c08301600083015161292460008601826125f3565b50602083015161293760208601826128a4565b506040830151848203604086015261294f82826128c4565b915050606083015161296460608601826128fd565b50608083015161297760808601826128a4565b5060a083015161298a60a08601826128fd565b508091505092915050565b60006129a1838361290c565b905092915050565b6000602082019050919050565b60006129c182612878565b6129cb8185612883565b9350836020820285016129dd85612894565b8060005b85811015612a1957848403895281516129fa8582612995565b9450612a05836129a9565b925060208a019950506001810190506129e1565b50829750879550505050505092915050565b60006020820190508181036000830152612a4581846129b6565b905092915050565b600060c082019050612a626000830189612409565b612a6f6020830188612332565b8181036040830152612a818187612534565b9050612a9060608301866124b3565b612a9d6080830185612332565b612aaa60a08301846124b3565b979650505050505050565b600080600060608486031215612ace57612acd612374565b5b6000612adc86828701612465565b9350506020612aed86828701612395565b925050604084013567ffffffffffffffff811115612b0e57612b0d612379565b5b612b1a868287016127ae565b9150509250925092565b600082825260208201905092915050565b7f6e6f74206f776e65720000000000000000000000000000000000000000000000600082015250565b6000612b6b600983612b24565b9150612b7682612b35565b602082019050919050565b60006020820190508181036000830152612b9a81612b5e565b9050919050565b7f747820646f6573206e6f74206578697374000000000000000000000000000000600082015250565b6000612bd7601183612b24565b9150612be282612ba1565b602082019050919050565b60006020820190508181036000830152612c0681612bca565b9050919050565b7f4e487b7100000000000000000000000000000000000000000000000000000000600052603260045260246000fd5b7f747820616c726561647920657865637574656400000000000000000000000000600082015250565b6000612c72601383612b24565b9150612c7d82612c3c565b602082019050919050565b60006020820190508181036000830152612ca181612c65565b9050919050565b7f7478206e6f7420636f6e6669726d656400000000000000000000000000000000600082015250565b6000612cde601083612b24565b9150612ce982612ca8565b602082019050919050565b60006020820190508181036000830152612d0d81612cd1565b9050919050565b7f4e487b7100000000000000000000000000000000000000000000000000000000600052601160045260246000fd5b6000612d4e82612328565b9150612d5983612328565b9250828203905081811115612d7157612d70612d14565b5b92915050565b6000612d8282612328565b9150612d8d83612328565b9250828201905080821115612da557612da4612d14565b5b92915050565b7f41746c617320646561637469766174696f6e2074696d65206e6f74207265616360008201527f6865640000000000000000000000000000000000000000000000000000000000602082015250565b6000612e07602383612b24565b9150612e1282612dab565b604082019050919050565b60006020820190508181036000830152612e3681612dfa565b9050919050565b7f4e487b7100000000000000000000000000000000000000000000000000000000600052602260045260246000fd5b60006002820490506001821680612e8457607f821691505b602082108103612e9757612e96612e3d565b5b50919050565b7f41746c6173206e6f742061637469766174656400000000000000000000000000600082015250565b6000612ed3601383612b24565b9150612ede82612e9d565b602082019050919050565b60006020820190508181036000830152612f0281612ec6565b9050919050565b7f41746c617320616c726561647920636f6e6669726d6564000000000000000000600082015250565b6000612f3f601783612b24565b9150612f4a82612f09565b602082019050919050565b60006020820190508181036000830152612f6e81612f32565b9050919050565b6000819050919050565b612f90612f8b82612328565b612f75565b82525050565b6000612fa28284612f7f565b60208201915081905092915050565b600081905092915050565b7f19457468657265756d205369676e6564204d6573736167653a0a333200000000600082015250565b6000612ff2601c83612fb1565b9150612ffd82612fbc565b601c82019050919050565b6000819050919050565b6000819050919050565b61302d61302882613008565b613012565b82525050565b600061303e82612fe5565b915061304a828461301c565b60208201915081905092915050565b7f496e76616c6964207369676e6174757265000000000000000000000000000000600082015250565b600061308f601183612b24565b915061309a82613059565b602082019050919050565b600060208201905081810360008301526130be81613082565b9050919050565b7f747820616c726561647920636f6e6669726d6564000000000000000000000000600082015250565b60006130fb601483612b24565b9150613106826130c5565b602082019050919050565b6000602082019050818103600083015261312a816130ee565b9050919050565b60008190508160005260206000209050919050565b60006020601f8301049050919050565b600082821b905092915050565b6000600883026131937fffffffffffffffffffffffffffffffffffffffffffffffffffffffffffffffff82613156565b61319d8683613156565b95508019841693508086168417925050509392505050565b6000819050919050565b60006131da6131d56131d084612328565b6131b5565b612328565b9050919050565b6000819050919050565b6131f4836131bf565b613208613200826131e1565b848454613163565b825550505050565b600090565b61321d613210565b6132288184846131eb565b505050565b5b8181101561324c57613241600082613215565b60018101905061322e565b5050565b601f8211156132915761326281613131565b61326b84613146565b8101602085101561327a578190505b61328e61328685613146565b83018261322d565b50505b505050565b600082821c905092915050565b60006132b460001984600802613296565b1980831691505092915050565b60006132cd83836132a3565b9150826002028217905092915050565b6132e6826124dd565b67ffffffffffffffff8111156132ff576132fe6126b1565b5b6133098254612e6c565b613314828285613250565b600060209050601f8311600181146133475760008415613335578287015190505b61333f85826132c1565b8655506133a7565b601f19841661335586613131565b60005b8281101561337d57848901518255600182019150602085019450602081019050613358565b8683101561339a5784890151613396601f8916826132a3565b8355505b6001600288020188555050505b505050505050565b60006040820190506133c46000830185612332565b81810360208301526133d68184612534565b90509392505050565b7f63616e6e6f742065786563757465207478000000000000000000000000000000600082015250565b6000613415601183612b24565b9150613420826133df565b602082019050919050565b6000602082019050818103600083015261344481613408565b9050919050565b7f41746c6173206e6f7420636f6e6669726d656400000000000000000000000000600082015250565b6000613481601383612b24565b915061348c8261344b565b602082019050919050565b600060208201905081810360008301526134b081613474565b9050919050565b600081905092915050565b600081546134cf81612e6c565b6134d981866134b7565b945060018216600081146134f457600181146135095761353c565b60ff198316865281151582028601935061353c565b61351285613131565b60005b8381101561353457815481890152600182019150602081019050613515565b838801955050505b50505092915050565b600061355182846134c2565b915081905092915050565b7f7478206661696c65640000000000000000000000000000000000000000000000600082015250565b6000613592600983612b24565b915061359d8261355c565b602082019050919050565b600060208201905081810360008301526135c181613585565b9050919050565b7f41746c61732061637469766174696f6e2074696d65206e6f742072656163686560008201527f6400000000000000000000000000000000000000000000000000000000000000602082015250565b6000613624602183612b24565b915061362f826135c8565b604082019050919050565b6000602082019050818103600083015261365381613617565b9050919050565b61366381613008565b82525050565b600060ff82169050919050565b61367f81613669565b82525050565b600060808201905061369a600083018761365a565b6136a76020830186613676565b6136b4604083018561365a565b6136c1606083018461365a565b95945050505050565b7f496e76616c6964207369676e6174757265206c656e6774680000000000000000600082015250565b6000613700601883612b24565b915061370b826136ca565b602082019050919050565b6000602082019050818103600083015261372f816136f3565b9050919050565b600061374182613669565b915061374c83613669565b9250828201905060ff81111561376557613764612d14565b5b92915050565b7f496e76616c6964207369676e61747572652076657273696f6e00000000000000600082015250565b60006137a1601983612b24565b91506137ac8261376b565b602082019050919050565b600060208201905081810360008301526137d081613794565b905091905056fea2646970667358221220d24300a2aba6d9d459f284e5dd009525df6167b5f1700cbdf997e9890a96d93164736f6c63430008180033",
  "linkReferences": {},
  "deployedLinkReferences": {}
}