{
  "_format": "hh-sol-artifact-1",
  "contractName": "MultiSigWallet",
  "sourceName": "contracts/Multisig.sol",
  "abi": [
    {
      "inputs": [
        {
          "internalType": "address[]",
          "name": "_owners",
          "type": "address[]"
        },
        {
          "internalType": "uint256",
          "name": "_numConfirmationsRequired",
          "type": "uint256"
        }
      ],
      "stateMutability": "nonpayable",
      "type": "constructor"
    },
    {
      "anonymous": false,
      "inputs": [
        {
          "indexed": true,
          "internalType": "address",
          "name": "owner",
          "type": "address"
        },
        {
          "indexed": true,
          "internalType": "uint256",
          "name": "txIndex",
          "type": "uint256"
        }
      ],
      "name": "ConfirmTransaction",
      "type": "event"
    },
    {
      "anonymous": false,
      "inputs": [
        {
          "indexed": true,
          "internalType": "address",
          "name": "sender",
          "type": "address"
        },
        {
          "indexed": false,
          "internalType": "uint256",
          "name": "amount",
          "type": "uint256"
        },
        {
          "indexed": false,
          "internalType": "uint256",
          "name": "balance",
          "type": "uint256"
        }
      ],
      "name": "Deposit",
      "type": "event"
    },
    {
      "anonymous": false,
      "inputs": [
        {
          "indexed": true,
          "internalType": "address",
          "name": "owner",
          "type": "address"
        },
        {
          "indexed": true,
          "internalType": "uint256",
          "name": "txIndex",
          "type": "uint256"
        }
      ],
      "name": "ExecuteTransaction",
      "type": "event"
    },
    {
      "anonymous": false,
      "inputs": [
        {
          "indexed": true,
          "internalType": "address",
          "name": "owner",
          "type": "address"
        },
        {
          "indexed": true,
          "internalType": "uint256",
          "name": "txIndex",
          "type": "uint256"
        }
      ],
      "name": "RevokeConfirmation",
      "type": "event"
    },
    {
      "anonymous": false,
      "inputs": [
        {
          "indexed": true,
          "internalType": "address",
          "name": "owner",
          "type": "address"
        },
        {
          "indexed": true,
          "internalType": "uint256",
          "name": "txIndex",
          "type": "uint256"
        },
        {
          "indexed": true,
          "internalType": "address",
          "name": "to",
          "type": "address"
        },
        {
          "indexed": false,
          "internalType": "uint256",
          "name": "value",
          "type": "uint256"
        },
        {
          "indexed": false,
          "internalType": "bytes",
          "name": "data",
          "type": "bytes"
        }
      ],
      "name": "SubmitTransaction",
      "type": "event"
    },
    {
      "inputs": [],
      "name": "activateAtlas",
      "outputs": [],
      "stateMutability": "nonpayable",
      "type": "function"
    },
    {
      "inputs": [],
      "name": "atlasAddress",
      "outputs": [
        {
          "internalType": "address",
          "name": "",
          "type": "address"
        }
      ],
      "stateMutability": "view",
      "type": "function"
    },
    {
      "inputs": [],
      "name": "atlasChangeMinTime",
      "outputs": [
        {
          "internalType": "uint256",
          "name": "",
          "type": "uint256"
        }
      ],
      "stateMutability": "view",
      "type": "function"
    },
    {
      "inputs": [],
      "name": "atlasProposedActivationAddress",
      "outputs": [
        {
          "internalType": "address",
          "name": "",
          "type": "address"
        }
      ],
      "stateMutability": "view",
      "type": "function"
    },
    {
      "inputs": [],
      "name": "atlasProposedActivationTime",
      "outputs": [
        {
          "internalType": "uint256",
          "name": "",
          "type": "uint256"
        }
      ],
      "stateMutability": "view",
      "type": "function"
    },
    {
      "inputs": [],
      "name": "atlasProposedDeactivationTime",
      "outputs": [
        {
          "internalType": "uint256",
          "name": "",
          "type": "uint256"
        }
      ],
      "stateMutability": "view",
      "type": "function"
    },
    {
      "inputs": [
        {
          "internalType": "uint256",
          "name": "_txIndex",
          "type": "uint256"
        },
        {
          "internalType": "bytes",
          "name": "signature",
          "type": "bytes"
        }
      ],
      "name": "confirmAtlas",
      "outputs": [],
      "stateMutability": "nonpayable",
      "type": "function"
    },
    {
      "inputs": [
        {
          "internalType": "uint256",
          "name": "_txIndex",
          "type": "uint256"
        }
      ],
      "name": "confirmTransaction",
      "outputs": [],
      "stateMutability": "nonpayable",
      "type": "function"
    },
    {
      "inputs": [],
      "name": "deactivateAtlas",
      "outputs": [],
      "stateMutability": "nonpayable",
      "type": "function"
    },
    {
      "inputs": [
        {
          "internalType": "uint256",
          "name": "_txIndex",
          "type": "uint256"
        }
      ],
      "name": "executeTransaction",
      "outputs": [],
      "stateMutability": "nonpayable",
      "type": "function"
    },
    {
      "inputs": [
        {
          "internalType": "uint256",
          "name": "_txIndex",
          "type": "uint256"
        }
      ],
      "name": "getApprovedOwners",
      "outputs": [
        {
          "internalType": "address[]",
          "name": "",
          "type": "address[]"
        }
      ],
      "stateMutability": "view",
      "type": "function"
    },
    {
      "inputs": [],
      "name": "getOwners",
      "outputs": [
        {
          "internalType": "address[]",
          "name": "",
          "type": "address[]"
        }
      ],
      "stateMutability": "view",
      "type": "function"
    },
    {
      "inputs": [
        {
          "internalType": "uint256",
          "name": "_txIndex",
          "type": "uint256"
        }
      ],
      "name": "getTransaction",
      "outputs": [
        {
          "internalType": "address",
          "name": "to",
          "type": "address"
        },
        {
          "internalType": "uint256",
          "name": "value",
          "type": "uint256"
        },
        {
          "internalType": "bytes",
          "name": "data",
          "type": "bytes"
        },
        {
          "internalType": "bool",
          "name": "executed",
          "type": "bool"
        },
        {
          "internalType": "uint256",
          "name": "numConfirmations",
          "type": "uint256"
        }
      ],
      "stateMutability": "view",
      "type": "function"
    },
    {
      "inputs": [],
      "name": "getTransactionCount",
      "outputs": [
        {
          "internalType": "uint256",
          "name": "",
          "type": "uint256"
        }
      ],
      "stateMutability": "view",
      "type": "function"
    },
    {
      "inputs": [],
      "name": "getTransactions",
      "outputs": [
        {
          "components": [
            {
              "internalType": "address",
              "name": "to",
              "type": "address"
            },
            {
              "internalType": "uint256",
              "name": "value",
              "type": "uint256"
            },
            {
              "internalType": "bytes",
              "name": "data",
              "type": "bytes"
            },
            {
              "internalType": "bool",
              "name": "executed",
              "type": "bool"
            },
            {
              "internalType": "uint256",
              "name": "numConfirmations",
              "type": "uint256"
            },
            {
              "internalType": "bool",
              "name": "atlasConfirmed",
              "type": "bool"
            }
          ],
          "internalType": "struct MultiSigWallet.Transaction[]",
          "name": "",
          "type": "tuple[]"
        }
      ],
      "stateMutability": "view",
      "type": "function"
    },
    {
      "inputs": [
        {
          "internalType": "uint256",
          "name": "",
          "type": "uint256"
        },
        {
          "internalType": "address",
          "name": "",
          "type": "address"
        }
      ],
      "name": "isConfirmed",
      "outputs": [
        {
          "internalType": "bool",
          "name": "",
          "type": "bool"
        }
      ],
      "stateMutability": "view",
      "type": "function"
    },
    {
      "inputs": [
        {
          "internalType": "address",
          "name": "",
          "type": "address"
        }
      ],
      "name": "isOwner",
      "outputs": [
        {
          "internalType": "bool",
          "name": "",
          "type": "bool"
        }
      ],
      "stateMutability": "view",
      "type": "function"
    },
    {
      "inputs": [],
      "name": "numConfirmationsRequired",
      "outputs": [
        {
          "internalType": "uint256",
          "name": "",
          "type": "uint256"
        }
      ],
      "stateMutability": "view",
      "type": "function"
    },
    {
      "inputs": [
        {
          "internalType": "uint256",
          "name": "",
          "type": "uint256"
        }
      ],
      "name": "owners",
      "outputs": [
        {
          "internalType": "address",
          "name": "",
          "type": "address"
        }
      ],
      "stateMutability": "view",
      "type": "function"
    },
    {
      "inputs": [
        {
          "internalType": "address",
          "name": "_atlasAddress",
          "type": "address"
        }
      ],
      "name": "proposeAtlasActivation",
      "outputs": [],
      "stateMutability": "nonpayable",
      "type": "function"
    },
    {
      "inputs": [],
      "name": "proposeAtlasDeactivation",
      "outputs": [],
      "stateMutability": "nonpayable",
      "type": "function"
    },
    {
      "inputs": [
        {
          "internalType": "uint256",
          "name": "_txIndex",
          "type": "uint256"
        }
      ],
      "name": "revokeConfirmation",
      "outputs": [],
      "stateMutability": "nonpayable",
      "type": "function"
    },
    {
      "inputs": [
        {
          "internalType": "address",
          "name": "_to",
          "type": "address"
        },
        {
          "internalType": "uint256",
          "name": "_value",
          "type": "uint256"
        },
        {
          "internalType": "bytes",
          "name": "_data",
          "type": "bytes"
        }
      ],
      "name": "submitTransaction",
      "outputs": [],
      "stateMutability": "nonpayable",
      "type": "function"
    },
    {
      "inputs": [
        {
          "internalType": "uint256",
          "name": "",
          "type": "uint256"
        }
      ],
      "name": "transactions",
      "outputs": [
        {
          "internalType": "address",
          "name": "to",
          "type": "address"
        },
        {
          "internalType": "uint256",
          "name": "value",
          "type": "uint256"
        },
        {
          "internalType": "bytes",
          "name": "data",
          "type": "bytes"
        },
        {
          "internalType": "bool",
          "name": "executed",
          "type": "bool"
        },
        {
          "internalType": "uint256",
          "name": "numConfirmations",
          "type": "uint256"
        },
        {
          "internalType": "bool",
          "name": "atlasConfirmed",
          "type": "bool"
        }
      ],
      "stateMutability": "view",
      "type": "function"
    },
    {
      "stateMutability": "payable",
      "type": "receive"
    }
  ],
  "bytecode": "0x6080604052603c6007553480156200001657600080fd5b5060405162003d8f38038062003d8f83398181016040528101906200003c91906200050a565b600082511162000083576040517f08c379a00000000000000000000000000000000000000000000000000000000081526004016200007a90620005d1565b60405180910390fd5b60008111801562000095575081518111155b620000d7576040517f08c379a0000000000000000000000000000000000000000000000000000000008152600401620000ce9062000669565b60405180910390fd5b60005b8251811015620002d1576000838281518110620000fc57620000fb6200068b565b5b60200260200101519050600073ffffffffffffffffffffffffffffffffffffffff168173ffffffffffffffffffffffffffffffffffffffff160362000178576040517f08c379a00000000000000000000000000000000000000000000000000000000081526004016200016f906200070a565b60405180910390fd5b600160008273ffffffffffffffffffffffffffffffffffffffff1673ffffffffffffffffffffffffffffffffffffffff16815260200190815260200160002060009054906101000a900460ff161562000208576040517f08c379a0000000000000000000000000000000000000000000000000000000008152600401620001ff906200077c565b60405180910390fd5b60018060008373ffffffffffffffffffffffffffffffffffffffff1673ffffffffffffffffffffffffffffffffffffffff16815260200190815260200160002060006101000a81548160ff0219169083151502179055506000819080600181540180825580915050600190039060005260206000200160009091909190916101000a81548173ffffffffffffffffffffffffffffffffffffffff021916908373ffffffffffffffffffffffffffffffffffffffff160217905550508080600101915050620000da565b508060028190555050506200079e565b6000604051905090565b600080fd5b600080fd5b600080fd5b6000601f19601f8301169050919050565b7f4e487b7100000000000000000000000000000000000000000000000000000000600052604160045260246000fd5b6200034582620002fa565b810181811067ffffffffffffffff821117156200036757620003666200030b565b5b80604052505050565b60006200037c620002e1565b90506200038a82826200033a565b919050565b600067ffffffffffffffff821115620003ad57620003ac6200030b565b5b602082029050602081019050919050565b600080fd5b600073ffffffffffffffffffffffffffffffffffffffff82169050919050565b6000620003f082620003c3565b9050919050565b6200040281620003e3565b81146200040e57600080fd5b50565b6000815190506200042281620003f7565b92915050565b60006200043f62000439846200038f565b62000370565b90508083825260208201905060208402830185811115620004655762000464620003be565b5b835b818110156200049257806200047d888262000411565b84526020840193505060208101905062000467565b5050509392505050565b600082601f830112620004b457620004b3620002f5565b5b8151620004c684826020860162000428565b91505092915050565b6000819050919050565b620004e481620004cf565b8114620004f057600080fd5b50565b6000815190506200050481620004d9565b92915050565b60008060408385031215620005245762000523620002eb565b5b600083015167ffffffffffffffff811115620005455762000544620002f0565b5b62000553858286016200049c565b92505060206200056685828601620004f3565b9150509250929050565b600082825260208201905092915050565b7f6f776e6572732072657175697265640000000000000000000000000000000000600082015250565b6000620005b9600f8362000570565b9150620005c68262000581565b602082019050919050565b60006020820190508181036000830152620005ec81620005aa565b9050919050565b7f696e76616c6964206e756d626572206f6620726571756972656420636f6e666960008201527f726d6174696f6e73000000000000000000000000000000000000000000000000602082015250565b60006200065160288362000570565b91506200065e82620005f3565b604082019050919050565b60006020820190508181036000830152620006848162000642565b9050919050565b7f4e487b7100000000000000000000000000000000000000000000000000000000600052603260045260246000fd5b7f696e76616c6964206f776e657200000000000000000000000000000000000000600082015250565b6000620006f2600d8362000570565b9150620006ff82620006ba565b602082019050919050565b600060208201905081810360008301526200072581620006e3565b9050919050565b7f6f776e6572206e6f7420756e6971756500000000000000000000000000000000600082015250565b60006200076460108362000570565b915062000771826200072c565b602082019050919050565b60006020820190508181036000830152620007978162000755565b9050919050565b6135e180620007ae6000396000f3fe60806040526004361061014f5760003560e01c806380f59a65116100b6578063c64274741161006f578063c64274741461050a578063d0549b8514610533578063da2f43531461055e578063ee22610b14610589578063ee33f305146105b2578063ee48deff146105c9576101a6565b806380f59a65146103e157806383920e901461041e5780639ace38c214610449578063a0e67e2b1461048b578063a2b507ce146104b6578063c01a8c84146104e1576101a6565b806333ea3dc81161010857806333ea3dc8146102bb5780633b9361ff146102fc5780634939f968146103275780634f67de49146103645780636e32a0021461038f578063764e45a3146103b8576101a6565b8063025e7c27146101ab57806312891c8b146101e857806320ea8d8614610213578063286cd58e1461023c5780632e7700f0146102535780632f54bf6e1461027e576101a6565b366101a6573373ffffffffffffffffffffffffffffffffffffffff167f90890809c654f11d6e72a28fa60149770a0d11ec6c92319d6ceb2bb0a4ea1a15344760405161019c929190612115565b60405180910390a2005b600080fd5b3480156101b757600080fd5b506101d260048036038101906101cd919061217e565b6105e0565b6040516101df91906121ec565b60405180910390f35b3480156101f457600080fd5b506101fd61061f565b60405161020a9190612207565b60405180910390f35b34801561021f57600080fd5b5061023a6004803603810190610235919061217e565b610625565b005b34801561024857600080fd5b506102516108ff565b005b34801561025f57600080fd5b50610268610a29565b6040516102759190612207565b60405180910390f35b34801561028a57600080fd5b506102a560048036038101906102a0919061224e565b610a36565b6040516102b29190612296565b60405180910390f35b3480156102c757600080fd5b506102e260048036038101906102dd919061217e565b610a56565b6040516102f3959493929190612341565b60405180910390f35b34801561030857600080fd5b50610311610b69565b60405161031e9190612207565b60405180910390f35b34801561033357600080fd5b5061034e6004803603810190610349919061217e565b610b6f565b60405161035b9190612459565b60405180910390f35b34801561037057600080fd5b50610379610df6565b6040516103869190612207565b60405180910390f35b34801561039b57600080fd5b506103b660048036038101906103b191906125b0565b610dfc565b005b3480156103c457600080fd5b506103df60048036038101906103da919061224e565b611065565b005b3480156103ed57600080fd5b506104086004803603810190610403919061260c565b61113c565b6040516104159190612296565b60405180910390f35b34801561042a57600080fd5b5061043361116b565b60405161044091906127ff565b60405180910390f35b34801561045557600080fd5b50610470600480360381019061046b919061217e565b6112fc565b60405161048296959493929190612821565b60405180910390f35b34801561049757600080fd5b506104a061140a565b6040516104ad9190612459565b60405180910390f35b3480156104c257600080fd5b506104cb611498565b6040516104d891906121ec565b60405180910390f35b3480156104ed57600080fd5b506105086004803603810190610503919061217e565b6114be565b005b34801561051657600080fd5b50610531600480360381019061052c9190612889565b61179b565b005b34801561053f57600080fd5b506105486119c7565b6040516105559190612207565b60405180910390f35b34801561056a57600080fd5b506105736119cd565b60405161058091906121ec565b60405180910390f35b34801561059557600080fd5b506105b060048036038101906105ab919061217e565b6119f3565b005b3480156105be57600080fd5b506105c7611d93565b005b3480156105d557600080fd5b506105de611f20565b005b600081815481106105f057600080fd5b906000526020600020016000915054906101000a900473ffffffffffffffffffffffffffffffffffffffff1681565b60045481565b600160003373ffffffffffffffffffffffffffffffffffffffff1673ffffffffffffffffffffffffffffffffffffffff16815260200190815260200160002060009054906101000a900460ff166106b1576040517f08c379a00000000000000000000000000000000000000000000000000000000081526004016106a890612955565b60405180910390fd5b8060098054905081106106f9576040517f08c379a00000000000000000000000000000000000000000000000000000000081526004016106f0906129c1565b60405180910390fd5b816009818154811061070e5761070d6129e1565b5b906000526020600020906006020160030160009054906101000a900460ff161561076d576040517f08c379a000000000000000000000000000000000000000000000000000000000815260040161076490612a5c565b60405180910390fd5b600060098481548110610783576107826129e1565b5b906000526020600020906006020190506008600085815260200190815260200160002060003373ffffffffffffffffffffffffffffffffffffffff1673ffffffffffffffffffffffffffffffffffffffff16815260200190815260200160002060009054906101000a900460ff16610830576040517f08c379a000000000000000000000000000000000000000000000000000000000815260040161082790612ac8565b60405180910390fd5b60018160040160008282546108459190612b17565b9250508190555060006008600086815260200190815260200160002060003373ffffffffffffffffffffffffffffffffffffffff1673ffffffffffffffffffffffffffffffffffffffff16815260200190815260200160002060006101000a81548160ff021916908315150217905550833373ffffffffffffffffffffffffffffffffffffffff167ff0dca620e2e81f7841d07bcc105e1704fb01475b278a9d4c236e1c62945edd5560405160405180910390a350505050565b600160003373ffffffffffffffffffffffffffffffffffffffff1673ffffffffffffffffffffffffffffffffffffffff16815260200190815260200160002060009054906101000a900460ff1661098b576040517f08c379a000000000000000000000000000000000000000000000000000000000815260040161098290612955565b60405180910390fd5b60075460065461099b9190612b4b565b4210156109dd576040517f08c379a00000000000000000000000000000000000000000000000000000000081526004016109d490612bf1565b60405180910390fd5b6000600360006101000a81548173ffffffffffffffffffffffffffffffffffffffff021916908373ffffffffffffffffffffffffffffffffffffffff1602179055506000600681905550565b6000600980549050905090565b60016020528060005260406000206000915054906101000a900460ff1681565b6000806060600080600060098781548110610a7457610a736129e1565b5b906000526020600020906006020190508060000160009054906101000a900473ffffffffffffffffffffffffffffffffffffffff168160010154826002018360030160009054906101000a900460ff168460040154828054610ad590612c40565b80601f0160208091040260200160405190810160405280929190818152602001828054610b0190612c40565b8015610b4e5780601f10610b2357610100808354040283529160200191610b4e565b820191906000526020600020905b815481529060010190602001808311610b3157829003601f168201915b50505050509250955095509550955095505091939590929450565b60075481565b60606000808054905067ffffffffffffffff811115610b9157610b90612485565b5b604051908082528060200260200182016040528015610bbf5781602001602082028036833780820191505090505b5090506000805b600080549050811015610d1c57600860008681526020019081526020016000206000808381548110610bfb57610bfa6129e1565b5b9060005260206000200160009054906101000a900473ffffffffffffffffffffffffffffffffffffffff1673ffffffffffffffffffffffffffffffffffffffff1673ffffffffffffffffffffffffffffffffffffffff16815260200190815260200160002060009054906101000a900460ff1615610d0f5760008181548110610c8757610c866129e1565b5b9060005260206000200160009054906101000a900473ffffffffffffffffffffffffffffffffffffffff16838381518110610cc557610cc46129e1565b5b602002602001019073ffffffffffffffffffffffffffffffffffffffff16908173ffffffffffffffffffffffffffffffffffffffff1681525050600182610d0c9190612b4b565b91505b8080600101915050610bc6565b5060008167ffffffffffffffff811115610d3957610d38612485565b5b604051908082528060200260200182016040528015610d675781602001602082028036833780820191505090505b50905060005b82811015610dea57838181518110610d8857610d876129e1565b5b6020026020010151828281518110610da357610da26129e1565b5b602002602001019073ffffffffffffffffffffffffffffffffffffffff16908173ffffffffffffffffffffffffffffffffffffffff16815250508080600101915050610d6d565b50809350505050919050565b60065481565b600073ffffffffffffffffffffffffffffffffffffffff16600360009054906101000a900473ffffffffffffffffffffffffffffffffffffffff1673ffffffffffffffffffffffffffffffffffffffff1603610e8d576040517f08c379a0000000000000000000000000000000000000000000000000000000008152600401610e8490612cbd565b60405180910390fd5b6009805490508210610ed4576040517f08c379a0000000000000000000000000000000000000000000000000000000008152600401610ecb906129c1565b60405180910390fd5b600060098381548110610eea57610ee96129e1565b5b906000526020600020906006020190508060050160009054906101000a900460ff1615610f4c576040517f08c379a0000000000000000000000000000000000000000000000000000000008152600401610f4390612d29565b60405180910390fd5b600083604051602001610f5f9190612d6a565b604051602081830303815290604052805190602001209050600081604051602001610f8a9190612e07565b6040516020818303038152906040528051906020012090506000610fae8286611fb5565b9050600360009054906101000a900473ffffffffffffffffffffffffffffffffffffffff1673ffffffffffffffffffffffffffffffffffffffff168173ffffffffffffffffffffffffffffffffffffffff1614611040576040517f08c379a000000000000000000000000000000000000000000000000000000000815260040161103790612e79565b60405180910390fd5b60018460050160006101000a81548160ff021916908315150217905550505050505050565b600160003373ffffffffffffffffffffffffffffffffffffffff1673ffffffffffffffffffffffffffffffffffffffff16815260200190815260200160002060009054906101000a900460ff166110f1576040517f08c379a00000000000000000000000000000000000000000000000000000000081526004016110e890612955565b60405180910390fd5b4260048190555080600560006101000a81548173ffffffffffffffffffffffffffffffffffffffff021916908373ffffffffffffffffffffffffffffffffffffffff16021790555050565b60086020528160005260406000206020528060005260406000206000915091509054906101000a900460ff1681565b60606009805480602002602001604051908101604052809291908181526020016000905b828210156112f357838290600052602060002090600602016040518060c00160405290816000820160009054906101000a900473ffffffffffffffffffffffffffffffffffffffff1673ffffffffffffffffffffffffffffffffffffffff1673ffffffffffffffffffffffffffffffffffffffff1681526020016001820154815260200160028201805461122290612c40565b80601f016020809104026020016040519081016040528092919081815260200182805461124e90612c40565b801561129b5780601f106112705761010080835404028352916020019161129b565b820191906000526020600020905b81548152906001019060200180831161127e57829003601f168201915b505050505081526020016003820160009054906101000a900460ff16151515158152602001600482015481526020016005820160009054906101000a900460ff1615151515815250508152602001906001019061118f565b50505050905090565b6009818154811061130c57600080fd5b90600052602060002090600602016000915090508060000160009054906101000a900473ffffffffffffffffffffffffffffffffffffffff169080600101549080600201805461135b90612c40565b80601f016020809104026020016040519081016040528092919081815260200182805461138790612c40565b80156113d45780601f106113a9576101008083540402835291602001916113d4565b820191906000526020600020905b8154815290600101906020018083116113b757829003601f168201915b5050505050908060030160009054906101000a900460ff16908060040154908060050160009054906101000a900460ff16905086565b6060600080548060200260200160405190810160405280929190818152602001828054801561148e57602002820191906000526020600020905b8160009054906101000a900473ffffffffffffffffffffffffffffffffffffffff1673ffffffffffffffffffffffffffffffffffffffff1681526020019060010190808311611444575b5050505050905090565b600360009054906101000a900473ffffffffffffffffffffffffffffffffffffffff1681565b600160003373ffffffffffffffffffffffffffffffffffffffff1673ffffffffffffffffffffffffffffffffffffffff16815260200190815260200160002060009054906101000a900460ff1661154a576040517f08c379a000000000000000000000000000000000000000000000000000000000815260040161154190612955565b60405180910390fd5b806009805490508110611592576040517f08c379a0000000000000000000000000000000000000000000000000000000008152600401611589906129c1565b60405180910390fd5b81600981815481106115a7576115a66129e1565b5b906000526020600020906006020160030160009054906101000a900460ff1615611606576040517f08c379a00000000000000000000000000000000000000000000000000000000081526004016115fd90612a5c565b60405180910390fd5b826008600082815260200190815260200160002060003373ffffffffffffffffffffffffffffffffffffffff1673ffffffffffffffffffffffffffffffffffffffff16815260200190815260200160002060009054906101000a900460ff16156116a5576040517f08c379a000000000000000000000000000000000000000000000000000000000815260040161169c90612ee5565b60405180910390fd5b6000600985815481106116bb576116ba6129e1565b5b9060005260206000209060060201905060018160040160008282546116e09190612b4b565b9250508190555060016008600087815260200190815260200160002060003373ffffffffffffffffffffffffffffffffffffffff1673ffffffffffffffffffffffffffffffffffffffff16815260200190815260200160002060006101000a81548160ff021916908315150217905550843373ffffffffffffffffffffffffffffffffffffffff167f5cbe105e36805f7820e291f799d5794ff948af2a5f664e580382defb6339004160405160405180910390a35050505050565b600160003373ffffffffffffffffffffffffffffffffffffffff1673ffffffffffffffffffffffffffffffffffffffff16815260200190815260200160002060009054906101000a900460ff16611827576040517f08c379a000000000000000000000000000000000000000000000000000000000815260040161181e90612955565b60405180910390fd5b6000600980549050905060096040518060c001604052808673ffffffffffffffffffffffffffffffffffffffff1681526020018581526020018481526020016000151581526020016000815260200160001515815250908060018154018082558091505060019003906000526020600020906006020160009091909190915060008201518160000160006101000a81548173ffffffffffffffffffffffffffffffffffffffff021916908373ffffffffffffffffffffffffffffffffffffffff16021790555060208201518160010155604082015181600201908161190c91906130b1565b5060608201518160030160006101000a81548160ff0219169083151502179055506080820151816004015560a08201518160050160006101000a81548160ff02191690831515021790555050508373ffffffffffffffffffffffffffffffffffffffff16813373ffffffffffffffffffffffffffffffffffffffff167fd5a05bf70715ad82a09a756320284a1b54c9ff74cd0f8cce6219e79b563fe59d86866040516119b9929190613183565b60405180910390a450505050565b60025481565b600560009054906101000a900473ffffffffffffffffffffffffffffffffffffffff1681565b600160003373ffffffffffffffffffffffffffffffffffffffff1673ffffffffffffffffffffffffffffffffffffffff16815260200190815260200160002060009054906101000a900460ff16611a7f576040517f08c379a0000000000000000000000000000000000000000000000000000000008152600401611a7690612955565b60405180910390fd5b806009805490508110611ac7576040517f08c379a0000000000000000000000000000000000000000000000000000000008152600401611abe906129c1565b60405180910390fd5b8160098181548110611adc57611adb6129e1565b5b906000526020600020906006020160030160009054906101000a900460ff1615611b3b576040517f08c379a0000000000000000000000000000000000000000000000000000000008152600401611b3290612a5c565b60405180910390fd5b600060098481548110611b5157611b506129e1565b5b9060005260206000209060060201905060025481600401541015611baa576040517f08c379a0000000000000000000000000000000000000000000000000000000008152600401611ba1906131ff565b60405180910390fd5b600073ffffffffffffffffffffffffffffffffffffffff16600360009054906101000a900473ffffffffffffffffffffffffffffffffffffffff1673ffffffffffffffffffffffffffffffffffffffff1614611c52578060050160009054906101000a900460ff16611c51576040517f08c379a0000000000000000000000000000000000000000000000000000000008152600401611c489061326b565b60405180910390fd5b5b60018160030160006101000a81548160ff02191690831515021790555060008160000160009054906101000a900473ffffffffffffffffffffffffffffffffffffffff1673ffffffffffffffffffffffffffffffffffffffff16826001015483600201604051611cc29190613319565b60006040518083038185875af1925050503d8060008114611cff576040519150601f19603f3d011682016040523d82523d6000602084013e611d04565b606091505b5050905080611d48576040517f08c379a0000000000000000000000000000000000000000000000000000000008152600401611d3f9061337c565b60405180910390fd5b843373ffffffffffffffffffffffffffffffffffffffff167f5445f318f4f5fcfb66592e68e0cc5822aa15664039bd5f0ffde24c5a8142b1ac60405160405180910390a35050505050565b600160003373ffffffffffffffffffffffffffffffffffffffff1673ffffffffffffffffffffffffffffffffffffffff16815260200190815260200160002060009054906101000a900460ff16611e1f576040517f08c379a0000000000000000000000000000000000000000000000000000000008152600401611e1690612955565b60405180910390fd5b600754600454611e2f9190612b4b565b421015611e71576040517f08c379a0000000000000000000000000000000000000000000000000000000008152600401611e689061340e565b60405180910390fd5b600560009054906101000a900473ffffffffffffffffffffffffffffffffffffffff16600360006101000a81548173ffffffffffffffffffffffffffffffffffffffff021916908373ffffffffffffffffffffffffffffffffffffffff1602179055506000600560006101000a81548173ffffffffffffffffffffffffffffffffffffffff021916908373ffffffffffffffffffffffffffffffffffffffff1602179055506000600481905550565b600160003373ffffffffffffffffffffffffffffffffffffffff1673ffffffffffffffffffffffffffffffffffffffff16815260200190815260200160002060009054906101000a900460ff16611fac576040517f08c379a0000000000000000000000000000000000000000000000000000000008152600401611fa390612955565b60405180910390fd5b42600681905550565b600080600080611fc485612024565b92509250925060018682858560405160008152602001604052604051611fed9493929190613459565b6020604051602081039080840390855afa15801561200f573d6000803e3d6000fd5b50505060206040510351935050505092915050565b6000806000604184511461206d576040517f08c379a0000000000000000000000000000000000000000000000000000000008152600401612064906134ea565b60405180910390fd5b6020840151925060408401519150606084015160001a9050601b8160ff1610156120a157601b8161209e919061350a565b90505b601b8160ff1614806120b65750601c8160ff16145b6120f5576040517f08c379a00000000000000000000000000000000000000000000000000000000081526004016120ec9061358b565b60405180910390fd5b9193909250565b6000819050919050565b61210f816120fc565b82525050565b600060408201905061212a6000830185612106565b6121376020830184612106565b9392505050565b6000604051905090565b600080fd5b600080fd5b61215b816120fc565b811461216657600080fd5b50565b60008135905061217881612152565b92915050565b60006020828403121561219457612193612148565b5b60006121a284828501612169565b91505092915050565b600073ffffffffffffffffffffffffffffffffffffffff82169050919050565b60006121d6826121ab565b9050919050565b6121e6816121cb565b82525050565b600060208201905061220160008301846121dd565b92915050565b600060208201905061221c6000830184612106565b92915050565b61222b816121cb565b811461223657600080fd5b50565b60008135905061224881612222565b92915050565b60006020828403121561226457612263612148565b5b600061227284828501612239565b91505092915050565b60008115159050919050565b6122908161227b565b82525050565b60006020820190506122ab6000830184612287565b92915050565b600081519050919050565b600082825260208201905092915050565b60005b838110156122eb5780820151818401526020810190506122d0565b60008484015250505050565b6000601f19601f8301169050919050565b6000612313826122b1565b61231d81856122bc565b935061232d8185602086016122cd565b612336816122f7565b840191505092915050565b600060a08201905061235660008301886121dd565b6123636020830187612106565b81810360408301526123758186612308565b90506123846060830185612287565b6123916080830184612106565b9695505050505050565b600081519050919050565b600082825260208201905092915050565b6000819050602082019050919050565b6123d0816121cb565b82525050565b60006123e283836123c7565b60208301905092915050565b6000602082019050919050565b60006124068261239b565b61241081856123a6565b935061241b836123b7565b8060005b8381101561244c57815161243388826123d6565b975061243e836123ee565b92505060018101905061241f565b5085935050505092915050565b6000602082019050818103600083015261247381846123fb565b905092915050565b600080fd5b600080fd5b7f4e487b7100000000000000000000000000000000000000000000000000000000600052604160045260246000fd5b6124bd826122f7565b810181811067ffffffffffffffff821117156124dc576124db612485565b5b80604052505050565b60006124ef61213e565b90506124fb82826124b4565b919050565b600067ffffffffffffffff82111561251b5761251a612485565b5b612524826122f7565b9050602081019050919050565b82818337600083830152505050565b600061255361254e84612500565b6124e5565b90508281526020810184848401111561256f5761256e612480565b5b61257a848285612531565b509392505050565b600082601f8301126125975761259661247b565b5b81356125a7848260208601612540565b91505092915050565b600080604083850312156125c7576125c6612148565b5b60006125d585828601612169565b925050602083013567ffffffffffffffff8111156125f6576125f561214d565b5b61260285828601612582565b9150509250929050565b6000806040838503121561262357612622612148565b5b600061263185828601612169565b925050602061264285828601612239565b9150509250929050565b600081519050919050565b600082825260208201905092915050565b6000819050602082019050919050565b612681816120fc565b82525050565b600082825260208201905092915050565b60006126a3826122b1565b6126ad8185612687565b93506126bd8185602086016122cd565b6126c6816122f7565b840191505092915050565b6126da8161227b565b82525050565b600060c0830160008301516126f860008601826123c7565b50602083015161270b6020860182612678565b50604083015184820360408601526127238282612698565b915050606083015161273860608601826126d1565b50608083015161274b6080860182612678565b5060a083015161275e60a08601826126d1565b508091505092915050565b600061277583836126e0565b905092915050565b6000602082019050919050565b60006127958261264c565b61279f8185612657565b9350836020820285016127b185612668565b8060005b858110156127ed57848403895281516127ce8582612769565b94506127d98361277d565b925060208a019950506001810190506127b5565b50829750879550505050505092915050565b60006020820190508181036000830152612819818461278a565b905092915050565b600060c08201905061283660008301896121dd565b6128436020830188612106565b81810360408301526128558187612308565b90506128646060830186612287565b6128716080830185612106565b61287e60a0830184612287565b979650505050505050565b6000806000606084860312156128a2576128a1612148565b5b60006128b086828701612239565b93505060206128c186828701612169565b925050604084013567ffffffffffffffff8111156128e2576128e161214d565b5b6128ee86828701612582565b9150509250925092565b600082825260208201905092915050565b7f6e6f74206f776e65720000000000000000000000000000000000000000000000600082015250565b600061293f6009836128f8565b915061294a82612909565b602082019050919050565b6000602082019050818103600083015261296e81612932565b9050919050565b7f747820646f6573206e6f74206578697374000000000000000000000000000000600082015250565b60006129ab6011836128f8565b91506129b682612975565b602082019050919050565b600060208201905081810360008301526129da8161299e565b9050919050565b7f4e487b7100000000000000000000000000000000000000000000000000000000600052603260045260246000fd5b7f747820616c726561647920657865637574656400000000000000000000000000600082015250565b6000612a466013836128f8565b9150612a5182612a10565b602082019050919050565b60006020820190508181036000830152612a7581612a39565b9050919050565b7f7478206e6f7420636f6e6669726d656400000000000000000000000000000000600082015250565b6000612ab26010836128f8565b9150612abd82612a7c565b602082019050919050565b60006020820190508181036000830152612ae181612aa5565b9050919050565b7f4e487b7100000000000000000000000000000000000000000000000000000000600052601160045260246000fd5b6000612b22826120fc565b9150612b2d836120fc565b9250828203905081811115612b4557612b44612ae8565b5b92915050565b6000612b56826120fc565b9150612b61836120fc565b9250828201905080821115612b7957612b78612ae8565b5b92915050565b7f41746c617320646561637469766174696f6e2074696d65206e6f74207265616360008201527f6865640000000000000000000000000000000000000000000000000000000000602082015250565b6000612bdb6023836128f8565b9150612be682612b7f565b604082019050919050565b60006020820190508181036000830152612c0a81612bce565b9050919050565b7f4e487b7100000000000000000000000000000000000000000000000000000000600052602260045260246000fd5b60006002820490506001821680612c5857607f821691505b602082108103612c6b57612c6a612c11565b5b50919050565b7f41746c6173206e6f742061637469766174656400000000000000000000000000600082015250565b6000612ca76013836128f8565b9150612cb282612c71565b602082019050919050565b60006020820190508181036000830152612cd681612c9a565b9050919050565b7f41746c617320616c726561647920636f6e6669726d6564000000000000000000600082015250565b6000612d136017836128f8565b9150612d1e82612cdd565b602082019050919050565b60006020820190508181036000830152612d4281612d06565b9050919050565b6000819050919050565b612d64612d5f826120fc565b612d49565b82525050565b6000612d768284612d53565b60208201915081905092915050565b600081905092915050565b7f19457468657265756d205369676e6564204d6573736167653a0a333200000000600082015250565b6000612dc6601c83612d85565b9150612dd182612d90565b601c82019050919050565b6000819050919050565b6000819050919050565b612e01612dfc82612ddc565b612de6565b82525050565b6000612e1282612db9565b9150612e1e8284612df0565b60208201915081905092915050565b7f496e76616c6964207369676e6174757265000000000000000000000000000000600082015250565b6000612e636011836128f8565b9150612e6e82612e2d565b602082019050919050565b60006020820190508181036000830152612e9281612e56565b9050919050565b7f747820616c726561647920636f6e6669726d6564000000000000000000000000600082015250565b6000612ecf6014836128f8565b9150612eda82612e99565b602082019050919050565b60006020820190508181036000830152612efe81612ec2565b9050919050565b60008190508160005260206000209050919050565b60006020601f8301049050919050565b600082821b905092915050565b600060088302612f677fffffffffffffffffffffffffffffffffffffffffffffffffffffffffffffffff82612f2a565b612f718683612f2a565b95508019841693508086168417925050509392505050565b6000819050919050565b6000612fae612fa9612fa4846120fc565b612f89565b6120fc565b9050919050565b6000819050919050565b612fc883612f93565b612fdc612fd482612fb5565b848454612f37565b825550505050565b600090565b612ff1612fe4565b612ffc818484612fbf565b505050565b5b8181101561302057613015600082612fe9565b600181019050613002565b5050565b601f8211156130655761303681612f05565b61303f84612f1a565b8101602085101561304e578190505b61306261305a85612f1a565b830182613001565b50505b505050565b600082821c905092915050565b60006130886000198460080261306a565b1980831691505092915050565b60006130a18383613077565b9150826002028217905092915050565b6130ba826122b1565b67ffffffffffffffff8111156130d3576130d2612485565b5b6130dd8254612c40565b6130e8828285613024565b600060209050601f83116001811461311b5760008415613109578287015190505b6131138582613095565b86555061317b565b601f19841661312986612f05565b60005b828110156131515784890151825560018201915060208501945060208101905061312c565b8683101561316e578489015161316a601f891682613077565b8355505b6001600288020188555050505b505050505050565b60006040820190506131986000830185612106565b81810360208301526131aa8184612308565b90509392505050565b7f63616e6e6f742065786563757465207478000000000000000000000000000000600082015250565b60006131e96011836128f8565b91506131f4826131b3565b602082019050919050565b60006020820190508181036000830152613218816131dc565b9050919050565b7f41746c6173206e6f7420636f6e6669726d656400000000000000000000000000600082015250565b60006132556013836128f8565b91506132608261321f565b602082019050919050565b6000602082019050818103600083015261328481613248565b9050919050565b600081905092915050565b600081546132a381612c40565b6132ad818661328b565b945060018216600081146132c857600181146132dd57613310565b60ff1983168652811515820286019350613310565b6132e685612f05565b60005b83811015613308578154818901526001820191506020810190506132e9565b838801955050505b50505092915050565b60006133258284613296565b915081905092915050565b7f7478206661696c65640000000000000000000000000000000000000000000000600082015250565b60006133666009836128f8565b915061337182613330565b602082019050919050565b6000602082019050818103600083015261339581613359565b9050919050565b7f41746c61732061637469766174696f6e2074696d65206e6f742072656163686560008201527f6400000000000000000000000000000000000000000000000000000000000000602082015250565b60006133f86021836128f8565b91506134038261339c565b604082019050919050565b60006020820190508181036000830152613427816133eb565b9050919050565b61343781612ddc565b82525050565b600060ff82169050919050565b6134538161343d565b82525050565b600060808201905061346e600083018761342e565b61347b602083018661344a565b613488604083018561342e565b613495606083018461342e565b95945050505050565b7f496e76616c6964207369676e6174757265206c656e6774680000000000000000600082015250565b60006134d46018836128f8565b91506134df8261349e565b602082019050919050565b60006020820190508181036000830152613503816134c7565b9050919050565b60006135158261343d565b91506135208361343d565b9250828201905060ff81111561353957613538612ae8565b5b92915050565b7f496e76616c6964207369676e61747572652076657273696f6e00000000000000600082015250565b60006135756019836128f8565b91506135808261353f565b602082019050919050565b600060208201905081810360008301526135a481613568565b905091905056fea2646970667358221220f7825e2ad93b8759a38991c617897067bdf111d3d243add909e9d595396e126864736f6c63430008180033",
  "linkReferences": {},
  "deployedLinkReferences": {}
}