{
  "_format": "hh-sol-artifact-1",
  "contractName": "MultiSigWallet",
  "sourceName": "contracts/Multisig.sol",
  "abi": [
    {
      "inputs": [
        {
          "internalType": "address[]",
          "name": "_owners",
          "type": "address[]"
        },
        {
          "internalType": "uint256",
          "name": "_numConfirmationsRequired",
          "type": "uint256"
        }
      ],
      "stateMutability": "nonpayable",
      "type": "constructor"
    },
    {
      "anonymous": false,
      "inputs": [
        {
          "indexed": true,
          "internalType": "address",
          "name": "owner",
          "type": "address"
        },
        {
          "indexed": true,
          "internalType": "uint256",
          "name": "txIndex",
          "type": "uint256"
        }
      ],
      "name": "ConfirmTransaction",
      "type": "event"
    },
    {
      "anonymous": false,
      "inputs": [
        {
          "indexed": true,
          "internalType": "address",
          "name": "sender",
          "type": "address"
        },
        {
          "indexed": false,
          "internalType": "uint256",
          "name": "amount",
          "type": "uint256"
        },
        {
          "indexed": false,
          "internalType": "uint256",
          "name": "balance",
          "type": "uint256"
        }
      ],
      "name": "Deposit",
      "type": "event"
    },
    {
      "anonymous": false,
      "inputs": [
        {
          "indexed": true,
          "internalType": "address",
          "name": "owner",
          "type": "address"
        },
        {
          "indexed": true,
          "internalType": "uint256",
          "name": "txIndex",
          "type": "uint256"
        }
      ],
      "name": "ExecuteTransaction",
      "type": "event"
    },
    {
      "anonymous": false,
      "inputs": [
        {
          "indexed": true,
          "internalType": "address",
          "name": "owner",
          "type": "address"
        },
        {
          "indexed": true,
          "internalType": "uint256",
          "name": "txIndex",
          "type": "uint256"
        }
      ],
      "name": "RevokeConfirmation",
      "type": "event"
    },
    {
      "anonymous": false,
      "inputs": [
        {
          "indexed": true,
          "internalType": "address",
          "name": "owner",
          "type": "address"
        },
        {
          "indexed": true,
          "internalType": "uint256",
          "name": "txIndex",
          "type": "uint256"
        },
        {
          "indexed": true,
          "internalType": "address",
          "name": "to",
          "type": "address"
        },
        {
          "indexed": false,
          "internalType": "uint256",
          "name": "value",
          "type": "uint256"
        },
        {
          "indexed": false,
          "internalType": "bytes",
          "name": "data",
          "type": "bytes"
        }
      ],
      "name": "SubmitTransaction",
      "type": "event"
    },
    {
      "inputs": [
        {
          "internalType": "uint256",
          "name": "_txIndex",
          "type": "uint256"
        }
      ],
      "name": "confirmTransaction",
      "outputs": [],
      "stateMutability": "nonpayable",
      "type": "function"
    },
    {
      "inputs": [
        {
          "internalType": "uint256",
          "name": "_txIndex",
          "type": "uint256"
        }
      ],
      "name": "executeTransaction",
      "outputs": [],
      "stateMutability": "nonpayable",
      "type": "function"
    },
    {
      "inputs": [],
      "name": "getOwners",
      "outputs": [
        {
          "internalType": "address[]",
          "name": "",
          "type": "address[]"
        }
      ],
      "stateMutability": "view",
      "type": "function"
    },
    {
      "inputs": [
        {
          "internalType": "uint256",
          "name": "_txIndex",
          "type": "uint256"
        }
      ],
      "name": "getTransaction",
      "outputs": [
        {
          "internalType": "address",
          "name": "to",
          "type": "address"
        },
        {
          "internalType": "uint256",
          "name": "value",
          "type": "uint256"
        },
        {
          "internalType": "bytes",
          "name": "data",
          "type": "bytes"
        },
        {
          "internalType": "bool",
          "name": "executed",
          "type": "bool"
        },
        {
          "internalType": "uint256",
          "name": "numConfirmations",
          "type": "uint256"
        }
      ],
      "stateMutability": "view",
      "type": "function"
    },
    {
      "inputs": [],
      "name": "getTransactionCount",
      "outputs": [
        {
          "internalType": "uint256",
          "name": "",
          "type": "uint256"
        }
      ],
      "stateMutability": "view",
      "type": "function"
    },
    {
      "inputs": [],
      "name": "getTransactions",
      "outputs": [
        {
          "components": [
            {
              "internalType": "address",
              "name": "to",
              "type": "address"
            },
            {
              "internalType": "uint256",
              "name": "value",
              "type": "uint256"
            },
            {
              "internalType": "bytes",
              "name": "data",
              "type": "bytes"
            },
            {
              "internalType": "bool",
              "name": "executed",
              "type": "bool"
            },
            {
              "internalType": "uint256",
              "name": "numConfirmations",
              "type": "uint256"
            }
          ],
          "internalType": "struct MultiSigWallet.Transaction[]",
          "name": "",
          "type": "tuple[]"
        }
      ],
      "stateMutability": "view",
      "type": "function"
    },
    {
      "inputs": [
        {
          "internalType": "uint256",
          "name": "",
          "type": "uint256"
        },
        {
          "internalType": "address",
          "name": "",
          "type": "address"
        }
      ],
      "name": "isConfirmed",
      "outputs": [
        {
          "internalType": "bool",
          "name": "",
          "type": "bool"
        }
      ],
      "stateMutability": "view",
      "type": "function"
    },
    {
      "inputs": [
        {
          "internalType": "address",
          "name": "",
          "type": "address"
        }
      ],
      "name": "isOwner",
      "outputs": [
        {
          "internalType": "bool",
          "name": "",
          "type": "bool"
        }
      ],
      "stateMutability": "view",
      "type": "function"
    },
    {
      "inputs": [],
      "name": "numConfirmationsRequired",
      "outputs": [
        {
          "internalType": "uint256",
          "name": "",
          "type": "uint256"
        }
      ],
      "stateMutability": "view",
      "type": "function"
    },
    {
      "inputs": [
        {
          "internalType": "uint256",
          "name": "",
          "type": "uint256"
        }
      ],
      "name": "owners",
      "outputs": [
        {
          "internalType": "address",
          "name": "",
          "type": "address"
        }
      ],
      "stateMutability": "view",
      "type": "function"
    },
    {
      "inputs": [
        {
          "internalType": "uint256",
          "name": "_txIndex",
          "type": "uint256"
        }
      ],
      "name": "revokeConfirmation",
      "outputs": [],
      "stateMutability": "nonpayable",
      "type": "function"
    },
    {
      "inputs": [
        {
          "internalType": "address",
          "name": "_to",
          "type": "address"
        },
        {
          "internalType": "uint256",
          "name": "_value",
          "type": "uint256"
        },
        {
          "internalType": "bytes",
          "name": "_data",
          "type": "bytes"
        }
      ],
      "name": "submitTransaction",
      "outputs": [],
      "stateMutability": "nonpayable",
      "type": "function"
    },
    {
      "inputs": [
        {
          "internalType": "uint256",
          "name": "",
          "type": "uint256"
        }
      ],
      "name": "transactions",
      "outputs": [
        {
          "internalType": "address",
          "name": "to",
          "type": "address"
        },
        {
          "internalType": "uint256",
          "name": "value",
          "type": "uint256"
        },
        {
          "internalType": "bytes",
          "name": "data",
          "type": "bytes"
        },
        {
          "internalType": "bool",
          "name": "executed",
          "type": "bool"
        },
        {
          "internalType": "uint256",
          "name": "numConfirmations",
          "type": "uint256"
        }
      ],
      "stateMutability": "view",
      "type": "function"
    },
    {
      "stateMutability": "payable",
      "type": "receive"
    }
  ],
  "bytecode": "0x60806040523480156200001157600080fd5b506040516200299238038062002992833981810160405281019062000037919062000505565b60008251116200007e576040517f08c379a00000000000000000000000000000000000000000000000000000000081526004016200007590620005cc565b60405180910390fd5b60008111801562000090575081518111155b620000d2576040517f08c379a0000000000000000000000000000000000000000000000000000000008152600401620000c99062000664565b60405180910390fd5b60005b8251811015620002cc576000838281518110620000f757620000f662000686565b5b60200260200101519050600073ffffffffffffffffffffffffffffffffffffffff168173ffffffffffffffffffffffffffffffffffffffff160362000173576040517f08c379a00000000000000000000000000000000000000000000000000000000081526004016200016a9062000705565b60405180910390fd5b600160008273ffffffffffffffffffffffffffffffffffffffff1673ffffffffffffffffffffffffffffffffffffffff16815260200190815260200160002060009054906101000a900460ff161562000203576040517f08c379a0000000000000000000000000000000000000000000000000000000008152600401620001fa9062000777565b60405180910390fd5b60018060008373ffffffffffffffffffffffffffffffffffffffff1673ffffffffffffffffffffffffffffffffffffffff16815260200190815260200160002060006101000a81548160ff0219169083151502179055506000819080600181540180825580915050600190039060005260206000200160009091909190916101000a81548173ffffffffffffffffffffffffffffffffffffffff021916908373ffffffffffffffffffffffffffffffffffffffff160217905550508080600101915050620000d5565b5080600281905550505062000799565b6000604051905090565b600080fd5b600080fd5b600080fd5b6000601f19601f8301169050919050565b7f4e487b7100000000000000000000000000000000000000000000000000000000600052604160045260246000fd5b6200034082620002f5565b810181811067ffffffffffffffff8211171562000362576200036162000306565b5b80604052505050565b600062000377620002dc565b905062000385828262000335565b919050565b600067ffffffffffffffff821115620003a857620003a762000306565b5b602082029050602081019050919050565b600080fd5b600073ffffffffffffffffffffffffffffffffffffffff82169050919050565b6000620003eb82620003be565b9050919050565b620003fd81620003de565b81146200040957600080fd5b50565b6000815190506200041d81620003f2565b92915050565b60006200043a62000434846200038a565b6200036b565b9050808382526020820190506020840283018581111562000460576200045f620003b9565b5b835b818110156200048d57806200047888826200040c565b84526020840193505060208101905062000462565b5050509392505050565b600082601f830112620004af57620004ae620002f0565b5b8151620004c184826020860162000423565b91505092915050565b6000819050919050565b620004df81620004ca565b8114620004eb57600080fd5b50565b600081519050620004ff81620004d4565b92915050565b600080604083850312156200051f576200051e620002e6565b5b600083015167ffffffffffffffff81111562000540576200053f620002eb565b5b6200054e8582860162000497565b92505060206200056185828601620004ee565b9150509250929050565b600082825260208201905092915050565b7f6f776e6572732072657175697265640000000000000000000000000000000000600082015250565b6000620005b4600f836200056b565b9150620005c1826200057c565b602082019050919050565b60006020820190508181036000830152620005e781620005a5565b9050919050565b7f696e76616c6964206e756d626572206f6620726571756972656420636f6e666960008201527f726d6174696f6e73000000000000000000000000000000000000000000000000602082015250565b60006200064c6028836200056b565b91506200065982620005ee565b604082019050919050565b600060208201905081810360008301526200067f816200063d565b9050919050565b7f4e487b7100000000000000000000000000000000000000000000000000000000600052603260045260246000fd5b7f696e76616c6964206f776e657200000000000000000000000000000000000000600082015250565b6000620006ed600d836200056b565b9150620006fa82620006b5565b602082019050919050565b600060208201905081810360008301526200072081620006de565b9050919050565b7f6f776e6572206e6f7420756e6971756500000000000000000000000000000000600082015250565b60006200075f6010836200056b565b91506200076c8262000727565b602082019050919050565b60006020820190508181036000830152620007928162000750565b9050919050565b6121e980620007a96000396000f3fe6080604052600436106100c65760003560e01c806383920e901161007f578063c01a8c8411610059578063c01a8c8414610305578063c64274741461032e578063d0549b8514610357578063ee22610b146103825761011d565b806383920e901461026e5780639ace38c214610299578063a0e67e2b146102da5761011d565b8063025e7c271461012257806320ea8d861461015f5780632e7700f0146101885780632f54bf6e146101b357806333ea3dc8146101f057806380f59a65146102315761011d565b3661011d573373ffffffffffffffffffffffffffffffffffffffff167f90890809c654f11d6e72a28fa60149770a0d11ec6c92319d6ceb2bb0a4ea1a153447604051610113929190611329565b60405180910390a2005b600080fd5b34801561012e57600080fd5b5061014960048036038101906101449190611392565b6103ab565b6040516101569190611400565b60405180910390f35b34801561016b57600080fd5b5061018660048036038101906101819190611392565b6103ea565b005b34801561019457600080fd5b5061019d6106c4565b6040516101aa919061141b565b60405180910390f35b3480156101bf57600080fd5b506101da60048036038101906101d59190611462565b6106d1565b6040516101e791906114aa565b60405180910390f35b3480156101fc57600080fd5b5061021760048036038101906102129190611392565b6106f1565b604051610228959493929190611555565b60405180910390f35b34801561023d57600080fd5b50610258600480360381019061025391906115af565b610804565b60405161026591906114aa565b60405180910390f35b34801561027a57600080fd5b50610283610833565b604051610290919061179e565b60405180910390f35b3480156102a557600080fd5b506102c060048036038101906102bb9190611392565b6109a9565b6040516102d1959493929190611555565b60405180910390f35b3480156102e657600080fd5b506102ef610aa4565b6040516102fc919061186f565b60405180910390f35b34801561031157600080fd5b5061032c60048036038101906103279190611392565b610b32565b005b34801561033a57600080fd5b50610355600480360381019061035091906119c6565b610e0f565b005b34801561036357600080fd5b5061036c611012565b604051610379919061141b565b60405180910390f35b34801561038e57600080fd5b506103a960048036038101906103a49190611392565b611018565b005b600081815481106103bb57600080fd5b906000526020600020016000915054906101000a900473ffffffffffffffffffffffffffffffffffffffff1681565b600160003373ffffffffffffffffffffffffffffffffffffffff1673ffffffffffffffffffffffffffffffffffffffff16815260200190815260200160002060009054906101000a900460ff16610476576040517f08c379a000000000000000000000000000000000000000000000000000000000815260040161046d90611a92565b60405180910390fd5b8060048054905081106104be576040517f08c379a00000000000000000000000000000000000000000000000000000000081526004016104b590611afe565b60405180910390fd5b81600481815481106104d3576104d2611b1e565b5b906000526020600020906005020160030160009054906101000a900460ff1615610532576040517f08c379a000000000000000000000000000000000000000000000000000000000815260040161052990611b99565b60405180910390fd5b60006004848154811061054857610547611b1e565b5b906000526020600020906005020190506003600085815260200190815260200160002060003373ffffffffffffffffffffffffffffffffffffffff1673ffffffffffffffffffffffffffffffffffffffff16815260200190815260200160002060009054906101000a900460ff166105f5576040517f08c379a00000000000000000000000000000000000000000000000000000000081526004016105ec90611c05565b60405180910390fd5b600181600401600082825461060a9190611c54565b9250508190555060006003600086815260200190815260200160002060003373ffffffffffffffffffffffffffffffffffffffff1673ffffffffffffffffffffffffffffffffffffffff16815260200190815260200160002060006101000a81548160ff021916908315150217905550833373ffffffffffffffffffffffffffffffffffffffff167ff0dca620e2e81f7841d07bcc105e1704fb01475b278a9d4c236e1c62945edd5560405160405180910390a350505050565b6000600480549050905090565b60016020528060005260406000206000915054906101000a900460ff1681565b600080606060008060006004878154811061070f5761070e611b1e565b5b906000526020600020906005020190508060000160009054906101000a900473ffffffffffffffffffffffffffffffffffffffff168160010154826002018360030160009054906101000a900460ff16846004015482805461077090611cb7565b80601f016020809104026020016040519081016040528092919081815260200182805461079c90611cb7565b80156107e95780601f106107be576101008083540402835291602001916107e9565b820191906000526020600020905b8154815290600101906020018083116107cc57829003601f168201915b50505050509250955095509550955095505091939590929450565b60036020528160005260406000206020528060005260406000206000915091509054906101000a900460ff1681565b60606004805480602002602001604051908101604052809291908181526020016000905b828210156109a057838290600052602060002090600502016040518060a00160405290816000820160009054906101000a900473ffffffffffffffffffffffffffffffffffffffff1673ffffffffffffffffffffffffffffffffffffffff1673ffffffffffffffffffffffffffffffffffffffff168152602001600182015481526020016002820180546108ea90611cb7565b80601f016020809104026020016040519081016040528092919081815260200182805461091690611cb7565b80156109635780601f1061093857610100808354040283529160200191610963565b820191906000526020600020905b81548152906001019060200180831161094657829003601f168201915b505050505081526020016003820160009054906101000a900460ff1615151515815260200160048201548152505081526020019060010190610857565b50505050905090565b600481815481106109b957600080fd5b90600052602060002090600502016000915090508060000160009054906101000a900473ffffffffffffffffffffffffffffffffffffffff1690806001015490806002018054610a0890611cb7565b80601f0160208091040260200160405190810160405280929190818152602001828054610a3490611cb7565b8015610a815780601f10610a5657610100808354040283529160200191610a81565b820191906000526020600020905b815481529060010190602001808311610a6457829003601f168201915b5050505050908060030160009054906101000a900460ff16908060040154905085565b60606000805480602002602001604051908101604052809291908181526020018280548015610b2857602002820191906000526020600020905b8160009054906101000a900473ffffffffffffffffffffffffffffffffffffffff1673ffffffffffffffffffffffffffffffffffffffff1681526020019060010190808311610ade575b5050505050905090565b600160003373ffffffffffffffffffffffffffffffffffffffff1673ffffffffffffffffffffffffffffffffffffffff16815260200190815260200160002060009054906101000a900460ff16610bbe576040517f08c379a0000000000000000000000000000000000000000000000000000000008152600401610bb590611a92565b60405180910390fd5b806004805490508110610c06576040517f08c379a0000000000000000000000000000000000000000000000000000000008152600401610bfd90611afe565b60405180910390fd5b8160048181548110610c1b57610c1a611b1e565b5b906000526020600020906005020160030160009054906101000a900460ff1615610c7a576040517f08c379a0000000000000000000000000000000000000000000000000000000008152600401610c7190611b99565b60405180910390fd5b826003600082815260200190815260200160002060003373ffffffffffffffffffffffffffffffffffffffff1673ffffffffffffffffffffffffffffffffffffffff16815260200190815260200160002060009054906101000a900460ff1615610d19576040517f08c379a0000000000000000000000000000000000000000000000000000000008152600401610d1090611d34565b60405180910390fd5b600060048581548110610d2f57610d2e611b1e565b5b906000526020600020906005020190506001816004016000828254610d549190611d54565b9250508190555060016003600087815260200190815260200160002060003373ffffffffffffffffffffffffffffffffffffffff1673ffffffffffffffffffffffffffffffffffffffff16815260200190815260200160002060006101000a81548160ff021916908315150217905550843373ffffffffffffffffffffffffffffffffffffffff167f5cbe105e36805f7820e291f799d5794ff948af2a5f664e580382defb6339004160405160405180910390a35050505050565b600160003373ffffffffffffffffffffffffffffffffffffffff1673ffffffffffffffffffffffffffffffffffffffff16815260200190815260200160002060009054906101000a900460ff16610e9b576040517f08c379a0000000000000000000000000000000000000000000000000000000008152600401610e9290611a92565b60405180910390fd5b6000600480549050905060046040518060a001604052808673ffffffffffffffffffffffffffffffffffffffff1681526020018581526020018481526020016000151581526020016000815250908060018154018082558091505060019003906000526020600020906005020160009091909190915060008201518160000160006101000a81548173ffffffffffffffffffffffffffffffffffffffff021916908373ffffffffffffffffffffffffffffffffffffffff160217905550602082015181600101556040820151816002019081610f779190611f34565b5060608201518160030160006101000a81548160ff0219169083151502179055506080820151816004015550508373ffffffffffffffffffffffffffffffffffffffff16813373ffffffffffffffffffffffffffffffffffffffff167fd5a05bf70715ad82a09a756320284a1b54c9ff74cd0f8cce6219e79b563fe59d8686604051611004929190612006565b60405180910390a450505050565b60025481565b600160003373ffffffffffffffffffffffffffffffffffffffff1673ffffffffffffffffffffffffffffffffffffffff16815260200190815260200160002060009054906101000a900460ff166110a4576040517f08c379a000000000000000000000000000000000000000000000000000000000815260040161109b90611a92565b60405180910390fd5b8060048054905081106110ec576040517f08c379a00000000000000000000000000000000000000000000000000000000081526004016110e390611afe565b60405180910390fd5b816004818154811061110157611100611b1e565b5b906000526020600020906005020160030160009054906101000a900460ff1615611160576040517f08c379a000000000000000000000000000000000000000000000000000000000815260040161115790611b99565b60405180910390fd5b60006004848154811061117657611175611b1e565b5b90600052602060002090600502019050600254816004015410156111cf576040517f08c379a00000000000000000000000000000000000000000000000000000000081526004016111c690612082565b60405180910390fd5b60018160030160006101000a81548160ff02191690831515021790555060008160000160009054906101000a900473ffffffffffffffffffffffffffffffffffffffff1673ffffffffffffffffffffffffffffffffffffffff1682600101548360020160405161123f9190612130565b60006040518083038185875af1925050503d806000811461127c576040519150601f19603f3d011682016040523d82523d6000602084013e611281565b606091505b50509050806112c5576040517f08c379a00000000000000000000000000000000000000000000000000000000081526004016112bc90612193565b60405180910390fd5b843373ffffffffffffffffffffffffffffffffffffffff167f5445f318f4f5fcfb66592e68e0cc5822aa15664039bd5f0ffde24c5a8142b1ac60405160405180910390a35050505050565b6000819050919050565b61132381611310565b82525050565b600060408201905061133e600083018561131a565b61134b602083018461131a565b9392505050565b6000604051905090565b600080fd5b600080fd5b61136f81611310565b811461137a57600080fd5b50565b60008135905061138c81611366565b92915050565b6000602082840312156113a8576113a761135c565b5b60006113b68482850161137d565b91505092915050565b600073ffffffffffffffffffffffffffffffffffffffff82169050919050565b60006113ea826113bf565b9050919050565b6113fa816113df565b82525050565b600060208201905061141560008301846113f1565b92915050565b6000602082019050611430600083018461131a565b92915050565b61143f816113df565b811461144a57600080fd5b50565b60008135905061145c81611436565b92915050565b6000602082840312156114785761147761135c565b5b60006114868482850161144d565b91505092915050565b60008115159050919050565b6114a48161148f565b82525050565b60006020820190506114bf600083018461149b565b92915050565b600081519050919050565b600082825260208201905092915050565b60005b838110156114ff5780820151818401526020810190506114e4565b60008484015250505050565b6000601f19601f8301169050919050565b6000611527826114c5565b61153181856114d0565b93506115418185602086016114e1565b61154a8161150b565b840191505092915050565b600060a08201905061156a60008301886113f1565b611577602083018761131a565b8181036040830152611589818661151c565b9050611598606083018561149b565b6115a5608083018461131a565b9695505050505050565b600080604083850312156115c6576115c561135c565b5b60006115d48582860161137d565b92505060206115e58582860161144d565b9150509250929050565b600081519050919050565b600082825260208201905092915050565b6000819050602082019050919050565b611624816113df565b82525050565b61163381611310565b82525050565b600082825260208201905092915050565b6000611655826114c5565b61165f8185611639565b935061166f8185602086016114e1565b6116788161150b565b840191505092915050565b61168c8161148f565b82525050565b600060a0830160008301516116aa600086018261161b565b5060208301516116bd602086018261162a565b50604083015184820360408601526116d5828261164a565b91505060608301516116ea6060860182611683565b5060808301516116fd608086018261162a565b508091505092915050565b60006117148383611692565b905092915050565b6000602082019050919050565b6000611734826115ef565b61173e81856115fa565b9350836020820285016117508561160b565b8060005b8581101561178c578484038952815161176d8582611708565b94506117788361171c565b925060208a01995050600181019050611754565b50829750879550505050505092915050565b600060208201905081810360008301526117b88184611729565b905092915050565b600081519050919050565b600082825260208201905092915050565b6000819050602082019050919050565b60006117f8838361161b565b60208301905092915050565b6000602082019050919050565b600061181c826117c0565b61182681856117cb565b9350611831836117dc565b8060005b8381101561186257815161184988826117ec565b975061185483611804565b925050600181019050611835565b5085935050505092915050565b600060208201905081810360008301526118898184611811565b905092915050565b600080fd5b600080fd5b7f4e487b7100000000000000000000000000000000000000000000000000000000600052604160045260246000fd5b6118d38261150b565b810181811067ffffffffffffffff821117156118f2576118f161189b565b5b80604052505050565b6000611905611352565b905061191182826118ca565b919050565b600067ffffffffffffffff8211156119315761193061189b565b5b61193a8261150b565b9050602081019050919050565b82818337600083830152505050565b600061196961196484611916565b6118fb565b90508281526020810184848401111561198557611984611896565b5b611990848285611947565b509392505050565b600082601f8301126119ad576119ac611891565b5b81356119bd848260208601611956565b91505092915050565b6000806000606084860312156119df576119de61135c565b5b60006119ed8682870161144d565b93505060206119fe8682870161137d565b925050604084013567ffffffffffffffff811115611a1f57611a1e611361565b5b611a2b86828701611998565b9150509250925092565b600082825260208201905092915050565b7f6e6f74206f776e65720000000000000000000000000000000000000000000000600082015250565b6000611a7c600983611a35565b9150611a8782611a46565b602082019050919050565b60006020820190508181036000830152611aab81611a6f565b9050919050565b7f747820646f6573206e6f74206578697374000000000000000000000000000000600082015250565b6000611ae8601183611a35565b9150611af382611ab2565b602082019050919050565b60006020820190508181036000830152611b1781611adb565b9050919050565b7f4e487b7100000000000000000000000000000000000000000000000000000000600052603260045260246000fd5b7f747820616c726561647920657865637574656400000000000000000000000000600082015250565b6000611b83601383611a35565b9150611b8e82611b4d565b602082019050919050565b60006020820190508181036000830152611bb281611b76565b9050919050565b7f7478206e6f7420636f6e6669726d656400000000000000000000000000000000600082015250565b6000611bef601083611a35565b9150611bfa82611bb9565b602082019050919050565b60006020820190508181036000830152611c1e81611be2565b9050919050565b7f4e487b7100000000000000000000000000000000000000000000000000000000600052601160045260246000fd5b6000611c5f82611310565b9150611c6a83611310565b9250828203905081811115611c8257611c81611c25565b5b92915050565b7f4e487b7100000000000000000000000000000000000000000000000000000000600052602260045260246000fd5b60006002820490506001821680611ccf57607f821691505b602082108103611ce257611ce1611c88565b5b50919050565b7f747820616c726561647920636f6e6669726d6564000000000000000000000000600082015250565b6000611d1e601483611a35565b9150611d2982611ce8565b602082019050919050565b60006020820190508181036000830152611d4d81611d11565b9050919050565b6000611d5f82611310565b9150611d6a83611310565b9250828201905080821115611d8257611d81611c25565b5b92915050565b60008190508160005260206000209050919050565b60006020601f8301049050919050565b600082821b905092915050565b600060088302611dea7fffffffffffffffffffffffffffffffffffffffffffffffffffffffffffffffff82611dad565b611df48683611dad565b95508019841693508086168417925050509392505050565b6000819050919050565b6000611e31611e2c611e2784611310565b611e0c565b611310565b9050919050565b6000819050919050565b611e4b83611e16565b611e5f611e5782611e38565b848454611dba565b825550505050565b600090565b611e74611e67565b611e7f818484611e42565b505050565b5b81811015611ea357611e98600082611e6c565b600181019050611e85565b5050565b601f821115611ee857611eb981611d88565b611ec284611d9d565b81016020851015611ed1578190505b611ee5611edd85611d9d565b830182611e84565b50505b505050565b600082821c905092915050565b6000611f0b60001984600802611eed565b1980831691505092915050565b6000611f248383611efa565b9150826002028217905092915050565b611f3d826114c5565b67ffffffffffffffff811115611f5657611f5561189b565b5b611f608254611cb7565b611f6b828285611ea7565b600060209050601f831160018114611f9e5760008415611f8c578287015190505b611f968582611f18565b865550611ffe565b601f198416611fac86611d88565b60005b82811015611fd457848901518255600182019150602085019450602081019050611faf565b86831015611ff15784890151611fed601f891682611efa565b8355505b6001600288020188555050505b505050505050565b600060408201905061201b600083018561131a565b818103602083015261202d818461151c565b90509392505050565b7f63616e6e6f742065786563757465207478000000000000000000000000000000600082015250565b600061206c601183611a35565b915061207782612036565b602082019050919050565b6000602082019050818103600083015261209b8161205f565b9050919050565b600081905092915050565b600081546120ba81611cb7565b6120c481866120a2565b945060018216600081146120df57600181146120f457612127565b60ff1983168652811515820286019350612127565b6120fd85611d88565b60005b8381101561211f57815481890152600182019150602081019050612100565b838801955050505b50505092915050565b600061213c82846120ad565b915081905092915050565b7f7478206661696c65640000000000000000000000000000000000000000000000600082015250565b600061217d600983611a35565b915061218882612147565b602082019050919050565b600060208201905081810360008301526121ac81612170565b905091905056fea26469706673582212204eb9c0b5cee4755fabe34d7859e3d66f48b8732be76eda5951c30ec23d6c19a164736f6c63430008180033",
  "linkReferences": {},
  "deployedLinkReferences": {}
}