{
  "_format": "hh-sol-artifact-1",
  "contractName": "MultiSigWallet",
  "sourceName": "contracts/Multisig.sol",
  "abi": [
    {
      "inputs": [
        {
          "internalType": "address[]",
          "name": "_owners",
          "type": "address[]"
        },
        {
          "internalType": "uint256",
          "name": "_numConfirmationsRequired",
          "type": "uint256"
        }
      ],
      "stateMutability": "nonpayable",
      "type": "constructor"
    },
    {
      "anonymous": false,
      "inputs": [
        {
          "indexed": true,
          "internalType": "address",
          "name": "owner",
          "type": "address"
        },
        {
          "indexed": true,
          "internalType": "uint256",
          "name": "txIndex",
          "type": "uint256"
        }
      ],
      "name": "ConfirmTransaction",
      "type": "event"
    },
    {
      "anonymous": false,
      "inputs": [
        {
          "indexed": true,
          "internalType": "address",
          "name": "sender",
          "type": "address"
        },
        {
          "indexed": false,
          "internalType": "uint256",
          "name": "amount",
          "type": "uint256"
        },
        {
          "indexed": false,
          "internalType": "uint256",
          "name": "balance",
          "type": "uint256"
        }
      ],
      "name": "Deposit",
      "type": "event"
    },
    {
      "anonymous": false,
      "inputs": [
        {
          "indexed": true,
          "internalType": "address",
          "name": "owner",
          "type": "address"
        },
        {
          "indexed": true,
          "internalType": "uint256",
          "name": "txIndex",
          "type": "uint256"
        }
      ],
      "name": "ExecuteTransaction",
      "type": "event"
    },
    {
      "anonymous": false,
      "inputs": [
        {
          "indexed": true,
          "internalType": "address",
          "name": "owner",
          "type": "address"
        },
        {
          "indexed": true,
          "internalType": "uint256",
          "name": "txIndex",
          "type": "uint256"
        }
      ],
      "name": "RevokeConfirmation",
      "type": "event"
    },
    {
      "anonymous": false,
      "inputs": [
        {
          "indexed": true,
          "internalType": "address",
          "name": "owner",
          "type": "address"
        },
        {
          "indexed": true,
          "internalType": "uint256",
          "name": "txIndex",
          "type": "uint256"
        },
        {
          "indexed": true,
          "internalType": "address",
          "name": "to",
          "type": "address"
        },
        {
          "indexed": false,
          "internalType": "uint256",
          "name": "value",
          "type": "uint256"
        },
        {
          "indexed": false,
          "internalType": "bytes",
          "name": "data",
          "type": "bytes"
        }
      ],
      "name": "SubmitTransaction",
      "type": "event"
    },
    {
      "inputs": [
        {
          "internalType": "uint256",
          "name": "_txIndex",
          "type": "uint256"
        }
      ],
      "name": "confirmTransaction",
      "outputs": [],
      "stateMutability": "nonpayable",
      "type": "function"
    },
    {
      "inputs": [
        {
          "internalType": "uint256",
          "name": "_txIndex",
          "type": "uint256"
        }
      ],
      "name": "executeTransaction",
      "outputs": [],
      "stateMutability": "nonpayable",
      "type": "function"
    },
    {
      "inputs": [
        {
          "internalType": "uint256",
          "name": "_txIndex",
          "type": "uint256"
        }
      ],
      "name": "getApprovedOwners",
      "outputs": [
        {
          "internalType": "address[]",
          "name": "",
          "type": "address[]"
        }
      ],
      "stateMutability": "view",
      "type": "function"
    },
    {
      "inputs": [],
      "name": "getOwners",
      "outputs": [
        {
          "internalType": "address[]",
          "name": "",
          "type": "address[]"
        }
      ],
      "stateMutability": "view",
      "type": "function"
    },
    {
      "inputs": [
        {
          "internalType": "uint256",
          "name": "_txIndex",
          "type": "uint256"
        }
      ],
      "name": "getTransaction",
      "outputs": [
        {
          "internalType": "address",
          "name": "to",
          "type": "address"
        },
        {
          "internalType": "uint256",
          "name": "value",
          "type": "uint256"
        },
        {
          "internalType": "bytes",
          "name": "data",
          "type": "bytes"
        },
        {
          "internalType": "bool",
          "name": "executed",
          "type": "bool"
        },
        {
          "internalType": "uint256",
          "name": "numConfirmations",
          "type": "uint256"
        }
      ],
      "stateMutability": "view",
      "type": "function"
    },
    {
      "inputs": [],
      "name": "getTransactionCount",
      "outputs": [
        {
          "internalType": "uint256",
          "name": "",
          "type": "uint256"
        }
      ],
      "stateMutability": "view",
      "type": "function"
    },
    {
      "inputs": [],
      "name": "getTransactions",
      "outputs": [
        {
          "components": [
            {
              "internalType": "address",
              "name": "to",
              "type": "address"
            },
            {
              "internalType": "uint256",
              "name": "value",
              "type": "uint256"
            },
            {
              "internalType": "bytes",
              "name": "data",
              "type": "bytes"
            },
            {
              "internalType": "bool",
              "name": "executed",
              "type": "bool"
            },
            {
              "internalType": "uint256",
              "name": "numConfirmations",
              "type": "uint256"
            }
          ],
          "internalType": "struct MultiSigWallet.Transaction[]",
          "name": "",
          "type": "tuple[]"
        }
      ],
      "stateMutability": "view",
      "type": "function"
    },
    {
      "inputs": [
        {
          "internalType": "uint256",
          "name": "",
          "type": "uint256"
        },
        {
          "internalType": "address",
          "name": "",
          "type": "address"
        }
      ],
      "name": "isConfirmed",
      "outputs": [
        {
          "internalType": "bool",
          "name": "",
          "type": "bool"
        }
      ],
      "stateMutability": "view",
      "type": "function"
    },
    {
      "inputs": [
        {
          "internalType": "address",
          "name": "",
          "type": "address"
        }
      ],
      "name": "isOwner",
      "outputs": [
        {
          "internalType": "bool",
          "name": "",
          "type": "bool"
        }
      ],
      "stateMutability": "view",
      "type": "function"
    },
    {
      "inputs": [],
      "name": "numConfirmationsRequired",
      "outputs": [
        {
          "internalType": "uint256",
          "name": "",
          "type": "uint256"
        }
      ],
      "stateMutability": "view",
      "type": "function"
    },
    {
      "inputs": [
        {
          "internalType": "uint256",
          "name": "",
          "type": "uint256"
        }
      ],
      "name": "owners",
      "outputs": [
        {
          "internalType": "address",
          "name": "",
          "type": "address"
        }
      ],
      "stateMutability": "view",
      "type": "function"
    },
    {
      "inputs": [
        {
          "internalType": "uint256",
          "name": "_txIndex",
          "type": "uint256"
        }
      ],
      "name": "revokeConfirmation",
      "outputs": [],
      "stateMutability": "nonpayable",
      "type": "function"
    },
    {
      "inputs": [
        {
          "internalType": "address",
          "name": "_to",
          "type": "address"
        },
        {
          "internalType": "uint256",
          "name": "_value",
          "type": "uint256"
        },
        {
          "internalType": "bytes",
          "name": "_data",
          "type": "bytes"
        }
      ],
      "name": "submitTransaction",
      "outputs": [],
      "stateMutability": "nonpayable",
      "type": "function"
    },
    {
      "inputs": [
        {
          "internalType": "uint256",
          "name": "",
          "type": "uint256"
        }
      ],
      "name": "transactions",
      "outputs": [
        {
          "internalType": "address",
          "name": "to",
          "type": "address"
        },
        {
          "internalType": "uint256",
          "name": "value",
          "type": "uint256"
        },
        {
          "internalType": "bytes",
          "name": "data",
          "type": "bytes"
        },
        {
          "internalType": "bool",
          "name": "executed",
          "type": "bool"
        },
        {
          "internalType": "uint256",
          "name": "numConfirmations",
          "type": "uint256"
        }
      ],
      "stateMutability": "view",
      "type": "function"
    },
    {
      "stateMutability": "payable",
      "type": "receive"
    }
  ],
  "bytecode": "0x60806040523480156200001157600080fd5b5060405162002c8838038062002c88833981810160405281019062000037919062000505565b60008251116200007e576040517f08c379a00000000000000000000000000000000000000000000000000000000081526004016200007590620005cc565b60405180910390fd5b60008111801562000090575081518111155b620000d2576040517f08c379a0000000000000000000000000000000000000000000000000000000008152600401620000c99062000664565b60405180910390fd5b60005b8251811015620002cc576000838281518110620000f757620000f662000686565b5b60200260200101519050600073ffffffffffffffffffffffffffffffffffffffff168173ffffffffffffffffffffffffffffffffffffffff160362000173576040517f08c379a00000000000000000000000000000000000000000000000000000000081526004016200016a9062000705565b60405180910390fd5b600160008273ffffffffffffffffffffffffffffffffffffffff1673ffffffffffffffffffffffffffffffffffffffff16815260200190815260200160002060009054906101000a900460ff161562000203576040517f08c379a0000000000000000000000000000000000000000000000000000000008152600401620001fa9062000777565b60405180910390fd5b60018060008373ffffffffffffffffffffffffffffffffffffffff1673ffffffffffffffffffffffffffffffffffffffff16815260200190815260200160002060006101000a81548160ff0219169083151502179055506000819080600181540180825580915050600190039060005260206000200160009091909190916101000a81548173ffffffffffffffffffffffffffffffffffffffff021916908373ffffffffffffffffffffffffffffffffffffffff160217905550508080600101915050620000d5565b5080600281905550505062000799565b6000604051905090565b600080fd5b600080fd5b600080fd5b6000601f19601f8301169050919050565b7f4e487b7100000000000000000000000000000000000000000000000000000000600052604160045260246000fd5b6200034082620002f5565b810181811067ffffffffffffffff8211171562000362576200036162000306565b5b80604052505050565b600062000377620002dc565b905062000385828262000335565b919050565b600067ffffffffffffffff821115620003a857620003a762000306565b5b602082029050602081019050919050565b600080fd5b600073ffffffffffffffffffffffffffffffffffffffff82169050919050565b6000620003eb82620003be565b9050919050565b620003fd81620003de565b81146200040957600080fd5b50565b6000815190506200041d81620003f2565b92915050565b60006200043a62000434846200038a565b6200036b565b9050808382526020820190506020840283018581111562000460576200045f620003b9565b5b835b818110156200048d57806200047888826200040c565b84526020840193505060208101905062000462565b5050509392505050565b600082601f830112620004af57620004ae620002f0565b5b8151620004c184826020860162000423565b91505092915050565b6000819050919050565b620004df81620004ca565b8114620004eb57600080fd5b50565b600081519050620004ff81620004d4565b92915050565b600080604083850312156200051f576200051e620002e6565b5b600083015167ffffffffffffffff81111562000540576200053f620002eb565b5b6200054e8582860162000497565b92505060206200056185828601620004ee565b9150509250929050565b600082825260208201905092915050565b7f6f776e6572732072657175697265640000000000000000000000000000000000600082015250565b6000620005b4600f836200056b565b9150620005c1826200057c565b602082019050919050565b60006020820190508181036000830152620005e781620005a5565b9050919050565b7f696e76616c6964206e756d626572206f6620726571756972656420636f6e666960008201527f726d6174696f6e73000000000000000000000000000000000000000000000000602082015250565b60006200064c6028836200056b565b91506200065982620005ee565b604082019050919050565b600060208201905081810360008301526200067f816200063d565b9050919050565b7f4e487b7100000000000000000000000000000000000000000000000000000000600052603260045260246000fd5b7f696e76616c6964206f776e657200000000000000000000000000000000000000600082015250565b6000620006ed600d836200056b565b9150620006fa82620006b5565b602082019050919050565b600060208201905081810360008301526200072081620006de565b9050919050565b7f6f776e6572206e6f7420756e6971756500000000000000000000000000000000600082015250565b60006200075f6010836200056b565b91506200076c8262000727565b602082019050919050565b60006020820190508181036000830152620007928162000750565b9050919050565b6124df80620007a96000396000f3fe6080604052600436106100e15760003560e01c806383920e901161007f578063c01a8c8411610059578063c01a8c841461035d578063c642747414610386578063d0549b85146103af578063ee22610b146103da57610138565b806383920e90146102c65780639ace38c2146102f1578063a0e67e2b1461033257610138565b80632f54bf6e116100bb5780632f54bf6e146101ce57806333ea3dc81461020b5780634939f9681461024c57806380f59a651461028957610138565b8063025e7c271461013d57806320ea8d861461017a5780632e7700f0146101a357610138565b36610138573373ffffffffffffffffffffffffffffffffffffffff167f90890809c654f11d6e72a28fa60149770a0d11ec6c92319d6ceb2bb0a4ea1a15344760405161012e92919061161f565b60405180910390a2005b600080fd5b34801561014957600080fd5b50610164600480360381019061015f9190611688565b610403565b60405161017191906116f6565b60405180910390f35b34801561018657600080fd5b506101a1600480360381019061019c9190611688565b610442565b005b3480156101af57600080fd5b506101b861071c565b6040516101c59190611711565b60405180910390f35b3480156101da57600080fd5b506101f560048036038101906101f09190611758565b610729565b60405161020291906117a0565b60405180910390f35b34801561021757600080fd5b50610232600480360381019061022d9190611688565b610749565b60405161024395949392919061184b565b60405180910390f35b34801561025857600080fd5b50610273600480360381019061026e9190611688565b61085c565b6040516102809190611963565b60405180910390f35b34801561029557600080fd5b506102b060048036038101906102ab9190611985565b610ae3565b6040516102bd91906117a0565b60405180910390f35b3480156102d257600080fd5b506102db610b12565b6040516102e89190611b65565b60405180910390f35b3480156102fd57600080fd5b5061031860048036038101906103139190611688565b610c88565b60405161032995949392919061184b565b60405180910390f35b34801561033e57600080fd5b50610347610d83565b6040516103549190611963565b60405180910390f35b34801561036957600080fd5b50610384600480360381019061037f9190611688565b610e11565b005b34801561039257600080fd5b506103ad60048036038101906103a89190611cbc565b611105565b005b3480156103bb57600080fd5b506103c4611308565b6040516103d19190611711565b60405180910390f35b3480156103e657600080fd5b5061040160048036038101906103fc9190611688565b61130e565b005b6000818154811061041357600080fd5b906000526020600020016000915054906101000a900473ffffffffffffffffffffffffffffffffffffffff1681565b600160003373ffffffffffffffffffffffffffffffffffffffff1673ffffffffffffffffffffffffffffffffffffffff16815260200190815260200160002060009054906101000a900460ff166104ce576040517f08c379a00000000000000000000000000000000000000000000000000000000081526004016104c590611d88565b60405180910390fd5b806004805490508110610516576040517f08c379a000000000000000000000000000000000000000000000000000000000815260040161050d90611df4565b60405180910390fd5b816004818154811061052b5761052a611e14565b5b906000526020600020906005020160030160009054906101000a900460ff161561058a576040517f08c379a000000000000000000000000000000000000000000000000000000000815260040161058190611e8f565b60405180910390fd5b6000600484815481106105a05761059f611e14565b5b906000526020600020906005020190506003600085815260200190815260200160002060003373ffffffffffffffffffffffffffffffffffffffff1673ffffffffffffffffffffffffffffffffffffffff16815260200190815260200160002060009054906101000a900460ff1661064d576040517f08c379a000000000000000000000000000000000000000000000000000000000815260040161064490611efb565b60405180910390fd5b60018160040160008282546106629190611f4a565b9250508190555060006003600086815260200190815260200160002060003373ffffffffffffffffffffffffffffffffffffffff1673ffffffffffffffffffffffffffffffffffffffff16815260200190815260200160002060006101000a81548160ff021916908315150217905550833373ffffffffffffffffffffffffffffffffffffffff167ff0dca620e2e81f7841d07bcc105e1704fb01475b278a9d4c236e1c62945edd5560405160405180910390a350505050565b6000600480549050905090565b60016020528060005260406000206000915054906101000a900460ff1681565b600080606060008060006004878154811061076757610766611e14565b5b906000526020600020906005020190508060000160009054906101000a900473ffffffffffffffffffffffffffffffffffffffff168160010154826002018360030160009054906101000a900460ff1684600401548280546107c890611fad565b80601f01602080910402602001604051908101604052809291908181526020018280546107f490611fad565b80156108415780601f1061081657610100808354040283529160200191610841565b820191906000526020600020905b81548152906001019060200180831161082457829003601f168201915b50505050509250955095509550955095505091939590929450565b60606000808054905067ffffffffffffffff81111561087e5761087d611b91565b5b6040519080825280602002602001820160405280156108ac5781602001602082028036833780820191505090505b5090506000805b600080549050811015610a09576003600086815260200190815260200160002060008083815481106108e8576108e7611e14565b5b9060005260206000200160009054906101000a900473ffffffffffffffffffffffffffffffffffffffff1673ffffffffffffffffffffffffffffffffffffffff1673ffffffffffffffffffffffffffffffffffffffff16815260200190815260200160002060009054906101000a900460ff16156109fc576000818154811061097457610973611e14565b5b9060005260206000200160009054906101000a900473ffffffffffffffffffffffffffffffffffffffff168383815181106109b2576109b1611e14565b5b602002602001019073ffffffffffffffffffffffffffffffffffffffff16908173ffffffffffffffffffffffffffffffffffffffff16815250506001826109f99190611fde565b91505b80806001019150506108b3565b5060008167ffffffffffffffff811115610a2657610a25611b91565b5b604051908082528060200260200182016040528015610a545781602001602082028036833780820191505090505b50905060005b82811015610ad757838181518110610a7557610a74611e14565b5b6020026020010151828281518110610a9057610a8f611e14565b5b602002602001019073ffffffffffffffffffffffffffffffffffffffff16908173ffffffffffffffffffffffffffffffffffffffff16815250508080600101915050610a5a565b50809350505050919050565b60036020528160005260406000206020528060005260406000206000915091509054906101000a900460ff1681565b60606004805480602002602001604051908101604052809291908181526020016000905b82821015610c7f57838290600052602060002090600502016040518060a00160405290816000820160009054906101000a900473ffffffffffffffffffffffffffffffffffffffff1673ffffffffffffffffffffffffffffffffffffffff1673ffffffffffffffffffffffffffffffffffffffff16815260200160018201548152602001600282018054610bc990611fad565b80601f0160208091040260200160405190810160405280929190818152602001828054610bf590611fad565b8015610c425780601f10610c1757610100808354040283529160200191610c42565b820191906000526020600020905b815481529060010190602001808311610c2557829003601f168201915b505050505081526020016003820160009054906101000a900460ff1615151515815260200160048201548152505081526020019060010190610b36565b50505050905090565b60048181548110610c9857600080fd5b90600052602060002090600502016000915090508060000160009054906101000a900473ffffffffffffffffffffffffffffffffffffffff1690806001015490806002018054610ce790611fad565b80601f0160208091040260200160405190810160405280929190818152602001828054610d1390611fad565b8015610d605780601f10610d3557610100808354040283529160200191610d60565b820191906000526020600020905b815481529060010190602001808311610d4357829003601f168201915b5050505050908060030160009054906101000a900460ff16908060040154905085565b60606000805480602002602001604051908101604052809291908181526020018280548015610e0757602002820191906000526020600020905b8160009054906101000a900473ffffffffffffffffffffffffffffffffffffffff1673ffffffffffffffffffffffffffffffffffffffff1681526020019060010190808311610dbd575b5050505050905090565b600160003373ffffffffffffffffffffffffffffffffffffffff1673ffffffffffffffffffffffffffffffffffffffff16815260200190815260200160002060009054906101000a900460ff16610e9d576040517f08c379a0000000000000000000000000000000000000000000000000000000008152600401610e9490611d88565b60405180910390fd5b806004805490508110610ee5576040517f08c379a0000000000000000000000000000000000000000000000000000000008152600401610edc90611df4565b60405180910390fd5b8160048181548110610efa57610ef9611e14565b5b906000526020600020906005020160030160009054906101000a900460ff1615610f59576040517f08c379a0000000000000000000000000000000000000000000000000000000008152600401610f5090611e8f565b60405180910390fd5b826003600082815260200190815260200160002060003373ffffffffffffffffffffffffffffffffffffffff1673ffffffffffffffffffffffffffffffffffffffff16815260200190815260200160002060009054906101000a900460ff1615610ff8576040517f08c379a0000000000000000000000000000000000000000000000000000000008152600401610fef9061205e565b60405180910390fd5b60006004858154811061100e5761100d611e14565b5b9060005260206000209060050201905060018160040160008282546110339190611fde565b9250508190555060016003600087815260200190815260200160002060003373ffffffffffffffffffffffffffffffffffffffff1673ffffffffffffffffffffffffffffffffffffffff16815260200190815260200160002060006101000a81548160ff0219169083151502179055506002548160040154106110ba576110b98561130e565b5b843373ffffffffffffffffffffffffffffffffffffffff167f5cbe105e36805f7820e291f799d5794ff948af2a5f664e580382defb6339004160405160405180910390a35050505050565b600160003373ffffffffffffffffffffffffffffffffffffffff1673ffffffffffffffffffffffffffffffffffffffff16815260200190815260200160002060009054906101000a900460ff16611191576040517f08c379a000000000000000000000000000000000000000000000000000000000815260040161118890611d88565b60405180910390fd5b6000600480549050905060046040518060a001604052808673ffffffffffffffffffffffffffffffffffffffff1681526020018581526020018481526020016000151581526020016000815250908060018154018082558091505060019003906000526020600020906005020160009091909190915060008201518160000160006101000a81548173ffffffffffffffffffffffffffffffffffffffff021916908373ffffffffffffffffffffffffffffffffffffffff16021790555060208201518160010155604082015181600201908161126d919061222a565b5060608201518160030160006101000a81548160ff0219169083151502179055506080820151816004015550508373ffffffffffffffffffffffffffffffffffffffff16813373ffffffffffffffffffffffffffffffffffffffff167fd5a05bf70715ad82a09a756320284a1b54c9ff74cd0f8cce6219e79b563fe59d86866040516112fa9291906122fc565b60405180910390a450505050565b60025481565b600160003373ffffffffffffffffffffffffffffffffffffffff1673ffffffffffffffffffffffffffffffffffffffff16815260200190815260200160002060009054906101000a900460ff1661139a576040517f08c379a000000000000000000000000000000000000000000000000000000000815260040161139190611d88565b60405180910390fd5b8060048054905081106113e2576040517f08c379a00000000000000000000000000000000000000000000000000000000081526004016113d990611df4565b60405180910390fd5b81600481815481106113f7576113f6611e14565b5b906000526020600020906005020160030160009054906101000a900460ff1615611456576040517f08c379a000000000000000000000000000000000000000000000000000000000815260040161144d90611e8f565b60405180910390fd5b60006004848154811061146c5761146b611e14565b5b90600052602060002090600502019050600254816004015410156114c5576040517f08c379a00000000000000000000000000000000000000000000000000000000081526004016114bc90612378565b60405180910390fd5b60018160030160006101000a81548160ff02191690831515021790555060008160000160009054906101000a900473ffffffffffffffffffffffffffffffffffffffff1673ffffffffffffffffffffffffffffffffffffffff168260010154836002016040516115359190612426565b60006040518083038185875af1925050503d8060008114611572576040519150601f19603f3d011682016040523d82523d6000602084013e611577565b606091505b50509050806115bb576040517f08c379a00000000000000000000000000000000000000000000000000000000081526004016115b290612489565b60405180910390fd5b843373ffffffffffffffffffffffffffffffffffffffff167f5445f318f4f5fcfb66592e68e0cc5822aa15664039bd5f0ffde24c5a8142b1ac60405160405180910390a35050505050565b6000819050919050565b61161981611606565b82525050565b60006040820190506116346000830185611610565b6116416020830184611610565b9392505050565b6000604051905090565b600080fd5b600080fd5b61166581611606565b811461167057600080fd5b50565b6000813590506116828161165c565b92915050565b60006020828403121561169e5761169d611652565b5b60006116ac84828501611673565b91505092915050565b600073ffffffffffffffffffffffffffffffffffffffff82169050919050565b60006116e0826116b5565b9050919050565b6116f0816116d5565b82525050565b600060208201905061170b60008301846116e7565b92915050565b60006020820190506117266000830184611610565b92915050565b611735816116d5565b811461174057600080fd5b50565b6000813590506117528161172c565b92915050565b60006020828403121561176e5761176d611652565b5b600061177c84828501611743565b91505092915050565b60008115159050919050565b61179a81611785565b82525050565b60006020820190506117b56000830184611791565b92915050565b600081519050919050565b600082825260208201905092915050565b60005b838110156117f55780820151818401526020810190506117da565b60008484015250505050565b6000601f19601f8301169050919050565b600061181d826117bb565b61182781856117c6565b93506118378185602086016117d7565b61184081611801565b840191505092915050565b600060a08201905061186060008301886116e7565b61186d6020830187611610565b818103604083015261187f8186611812565b905061188e6060830185611791565b61189b6080830184611610565b9695505050505050565b600081519050919050565b600082825260208201905092915050565b6000819050602082019050919050565b6118da816116d5565b82525050565b60006118ec83836118d1565b60208301905092915050565b6000602082019050919050565b6000611910826118a5565b61191a81856118b0565b9350611925836118c1565b8060005b8381101561195657815161193d88826118e0565b9750611948836118f8565b925050600181019050611929565b5085935050505092915050565b6000602082019050818103600083015261197d8184611905565b905092915050565b6000806040838503121561199c5761199b611652565b5b60006119aa85828601611673565b92505060206119bb85828601611743565b9150509250929050565b600081519050919050565b600082825260208201905092915050565b6000819050602082019050919050565b6119fa81611606565b82525050565b600082825260208201905092915050565b6000611a1c826117bb565b611a268185611a00565b9350611a368185602086016117d7565b611a3f81611801565b840191505092915050565b611a5381611785565b82525050565b600060a083016000830151611a7160008601826118d1565b506020830151611a8460208601826119f1565b5060408301518482036040860152611a9c8282611a11565b9150506060830151611ab16060860182611a4a565b506080830151611ac460808601826119f1565b508091505092915050565b6000611adb8383611a59565b905092915050565b6000602082019050919050565b6000611afb826119c5565b611b0581856119d0565b935083602082028501611b17856119e1565b8060005b85811015611b535784840389528151611b348582611acf565b9450611b3f83611ae3565b925060208a01995050600181019050611b1b565b50829750879550505050505092915050565b60006020820190508181036000830152611b7f8184611af0565b905092915050565b600080fd5b600080fd5b7f4e487b7100000000000000000000000000000000000000000000000000000000600052604160045260246000fd5b611bc982611801565b810181811067ffffffffffffffff82111715611be857611be7611b91565b5b80604052505050565b6000611bfb611648565b9050611c078282611bc0565b919050565b600067ffffffffffffffff821115611c2757611c26611b91565b5b611c3082611801565b9050602081019050919050565b82818337600083830152505050565b6000611c5f611c5a84611c0c565b611bf1565b905082815260208101848484011115611c7b57611c7a611b8c565b5b611c86848285611c3d565b509392505050565b600082601f830112611ca357611ca2611b87565b5b8135611cb3848260208601611c4c565b91505092915050565b600080600060608486031215611cd557611cd4611652565b5b6000611ce386828701611743565b9350506020611cf486828701611673565b925050604084013567ffffffffffffffff811115611d1557611d14611657565b5b611d2186828701611c8e565b9150509250925092565b600082825260208201905092915050565b7f6e6f74206f776e65720000000000000000000000000000000000000000000000600082015250565b6000611d72600983611d2b565b9150611d7d82611d3c565b602082019050919050565b60006020820190508181036000830152611da181611d65565b9050919050565b7f747820646f6573206e6f74206578697374000000000000000000000000000000600082015250565b6000611dde601183611d2b565b9150611de982611da8565b602082019050919050565b60006020820190508181036000830152611e0d81611dd1565b9050919050565b7f4e487b7100000000000000000000000000000000000000000000000000000000600052603260045260246000fd5b7f747820616c726561647920657865637574656400000000000000000000000000600082015250565b6000611e79601383611d2b565b9150611e8482611e43565b602082019050919050565b60006020820190508181036000830152611ea881611e6c565b9050919050565b7f7478206e6f7420636f6e6669726d656400000000000000000000000000000000600082015250565b6000611ee5601083611d2b565b9150611ef082611eaf565b602082019050919050565b60006020820190508181036000830152611f1481611ed8565b9050919050565b7f4e487b7100000000000000000000000000000000000000000000000000000000600052601160045260246000fd5b6000611f5582611606565b9150611f6083611606565b9250828203905081811115611f7857611f77611f1b565b5b92915050565b7f4e487b7100000000000000000000000000000000000000000000000000000000600052602260045260246000fd5b60006002820490506001821680611fc557607f821691505b602082108103611fd857611fd7611f7e565b5b50919050565b6000611fe982611606565b9150611ff483611606565b925082820190508082111561200c5761200b611f1b565b5b92915050565b7f747820616c726561647920636f6e6669726d6564000000000000000000000000600082015250565b6000612048601483611d2b565b915061205382612012565b602082019050919050565b600060208201905081810360008301526120778161203b565b9050919050565b60008190508160005260206000209050919050565b60006020601f8301049050919050565b600082821b905092915050565b6000600883026120e07fffffffffffffffffffffffffffffffffffffffffffffffffffffffffffffffff826120a3565b6120ea86836120a3565b95508019841693508086168417925050509392505050565b6000819050919050565b600061212761212261211d84611606565b612102565b611606565b9050919050565b6000819050919050565b6121418361210c565b61215561214d8261212e565b8484546120b0565b825550505050565b600090565b61216a61215d565b612175818484612138565b505050565b5b818110156121995761218e600082612162565b60018101905061217b565b5050565b601f8211156121de576121af8161207e565b6121b884612093565b810160208510156121c7578190505b6121db6121d385612093565b83018261217a565b50505b505050565b600082821c905092915050565b6000612201600019846008026121e3565b1980831691505092915050565b600061221a83836121f0565b9150826002028217905092915050565b612233826117bb565b67ffffffffffffffff81111561224c5761224b611b91565b5b6122568254611fad565b61226182828561219d565b600060209050601f8311600181146122945760008415612282578287015190505b61228c858261220e565b8655506122f4565b601f1984166122a28661207e565b60005b828110156122ca578489015182556001820191506020850194506020810190506122a5565b868310156122e757848901516122e3601f8916826121f0565b8355505b6001600288020188555050505b505050505050565b60006040820190506123116000830185611610565b81810360208301526123238184611812565b90509392505050565b7f63616e6e6f742065786563757465207478000000000000000000000000000000600082015250565b6000612362601183611d2b565b915061236d8261232c565b602082019050919050565b6000602082019050818103600083015261239181612355565b9050919050565b600081905092915050565b600081546123b081611fad565b6123ba8186612398565b945060018216600081146123d557600181146123ea5761241d565b60ff198316865281151582028601935061241d565b6123f38561207e565b60005b83811015612415578154818901526001820191506020810190506123f6565b838801955050505b50505092915050565b600061243282846123a3565b915081905092915050565b7f7478206661696c65640000000000000000000000000000000000000000000000600082015250565b6000612473600983611d2b565b915061247e8261243d565b602082019050919050565b600060208201905081810360008301526124a281612466565b905091905056fea2646970667358221220d610e1177ccb6b6f78841dc4e9a9d889f2aa36759d88f694cb9a5abf12d3043664736f6c63430008180033",
  "linkReferences": {},
  "deployedLinkReferences": {}
}